:100000000C942E050C944B050C944B050C9447272F
:100010000C944B050C944B050C944B050C944B0520
:100020000C944B050C944B050C940F240C94E72472
:100030000C9476100C944B050C944B050C944B05CA
:100040000C944B050C944B050C944B050C944B05F0
:100050000C944B050C94EB230C944B050C944B0522
:100060000C944B050C944B050C944B050C944B05D0
:100070000C944B050C944B050C944B050C944B05C0
:100080000C944B050C944B050C944B050C944B05B0
:100090000C944B050C944B050C944B050C944B05A0
:1000A0000C944B050C944B050C944B0500AF00AE23
:1000B00005010902A10185020901A1000509190133
:1000C00029081500250195087501810205010930EF
:1000D00009311581257F950275088106093815813A
:1000E000257F950175088106050C0A3802158125C2
:1000F0007F950175088106C0C005010980A10185B1
:100100000319012AB700150126B700950175108162
:1001100000C0050C0901A101850419012AA00215DE
:100120000126A002950175108100C005010906A1F4
:10013000018506050719E029E715002501950875D1
:100140000181020507190029EF1500250195F075B9
:10015000018102050819012905950575019102958E
:100160000175039101C005010906A101050719E008
:1001700029E715002501950875018102950175088B
:1001800081010507190029FF150026FF0095067556
:100190000881000508190129051500250195057537
:1001A000019102950175039101C009023B00020112
:1001B00000A0FA0904000001030101000921110156
:1001C0000001224400070581030800010904010021
:1001D000010300000009211101000122B6000705FA
:1001E0008203200001120100020000000832FC8797
:1001F000020100010200010C0353006F0066006C55
:1002000000650000001A034A006F00730065006675
:10021000004100640061006D00630069006B000034
:100220000004030904808182838485868788898A03
:100230008B8C8D8E8F9091929394A0A1A2A3A4A554
:10024000A6A7A8A9AAABACADAEAFB0B1B2B3B4C0CB
:10025000C1C2C3C4C5C6C7C8C9CACBCCCDCECFD016
:10026000D1D2D3D4004350534C4B000A0A00556EF0
:10027000646566004C6F7765720052616973650052
:10028000426173650A004C41594552000A0A004D0B
:100290006F640A00436C6D6B0051777274000A0A38
:1002A0000007087F0807003E5B4F5B3E003E6B4F38
:1002B0006B3E001C3E7C3E1C00183C7E3C18001C23
:1002C000577D571C001C5E7F5E1C0000183C180008
:1002D00000FFE7C3E7FF00001824180000FFE7DB7A
:1002E000E7FF0030483A060E00262979292600400B
:1002F0007F05050700407F05253F005A3CE73C5A33
:10030000007F3E1C1C0800081C1C3E7F0014227F3E
:100310002214005F5F005F5F0006097F017F00001D
:100320006689956A0060606060600094A2FFA29494
:100330000008047E04080010207E20100008082A0F
:100340001C0800081C2A0808001E10101010000CC1
:100350001E0C1E0C0030383E383000060E3E0E06D5
:100360000000000000000000005F00000000070027
:10037000070000147F147F1400242A7F2A12002310
:100380001308646200364956205000000807030035
:1003900000001C224100000041221C00002A1C7F9A
:1003A0001C2A0008083E0808000080703000000881
:1003B000080808080000006060000020100804021F
:1003C000003E5149453E0000427F400000724949CD
:1003D0004946002141494D33001814127F1000276F
:1003E00045454539003C4A49493100412111090739
:1003F00000364949493600464949291E0000001483
:1004000000000000403400000000081422410014E5
:1004100014141414000041221408000201590906A2
:10042000003E415D594E007C1211127C007F49490B
:100430004936003E41414122007F4141413E007F1B
:1004400049494941007F09090901003E4141517371
:10045000007F0808087F0000417F410000204041E4
:100460003F01007F08142241007F40404040007F50
:10047000021C027F007F0408107F003E4141413E84
:10048000007F09090906003E4151215E007F0919DC
:1004900029460026494949320003017F0103003FF4
:1004A0004040403F001F2040201F003F4038403F59
:1004B00000631408146300030478040300615949BD
:1004C0004D4300007F41414100020408102000001C
:1004D0004141417F0004020102040040404040408D
:1004E000000003070800002054547840007F28448F
:1004F000443800384444442800384444287F0038B5
:10050000545454180000087E09020018A4A49C78D2
:10051000007F080404780000447D40000020404033
:100520003D00007F102844000000417F4000007C17
:1005300004780478007C0804047800384444443883
:1005400000FC182424180018242418FC007C08043B
:1005500004080048545454240004043F4424003C3C
:100560004040207C001C2040201C003C4030403C8F
:10057000004428102844004C9090907C004464541F
:100580004C440000083641000000007700000000E5
:1005900041360800000201020402003C2623263CEA
:1005A00000000000000000404040F0F8F8FF38FF75
:1005B000F8F83FF8F8FF38FFF8F8F0404040000046
:1005C0000000000080C0C0C0800000C0C0800000EB
:1005D0000080C0C000C0C0000080C0C0000000009B
:1005E00000C0C0C0C0C000C0C000000000000000CB
:1005F00000000000000000000000000000000000FB
:1006000000000000000000000000000000000000EA
:1006100000000000000000000000000000000000DA
:10062000C0F0F8FC3E1E06010000007F4141417F02
:10063000007F4141417F000080C0E07E5B4F5BFE58
:10064000C00000C000DCD7DEDEDED7DC00C000006A
:10065000000000000000000000000000000000009A
:1006600000000000000000494949FFFFFFFFE0DFF4
:10067000BFBF00BFBFDFE0FFFFFFFF4949490000E8
:100680000000001F3F6060E0BF1F007F7F071E3833
:100690001E077F7F007F7F0E1F3B71600000000000
:1006A000007F7F0C0C0C007E7E007F7E0303007FAA
:1006B0007E03037E7E03037F7E000F3E703C063C7C
:1006C000703E0F00327B49493F7E007F7E0303006E
:1006D0001E3F69696F260000000000000000000056
:1006E000030F1F3F3C7870600000007F4141417F55
:1006F000007F4141417F00307B7F7830202030787F
:100700007F3B0003000F7F0F0F0F7F0F00030000E0
:1007100000000000000000000000000000000000D9
:1007200000000000000000010101070F0F7F0F7F94
:100730000F0F7E0F0F7F0F7F0F0F070101010000CA
:1007400000000000000000000101000000000000A7
:100750000000000000000000000000000000000099
:100760000000000000000000000000000000000089
:100770000000000000000000000000000000000079
:100780000000000000000000000000000000000069
:100790000000000000000000000000000000000059
:1007A0000000000000000000000000000000000049
:1007B0000000000000000000000000000000000039
:1007C0000000000000000000000000000000000029
:1007D0000000000000000000000000000000000019
:1007E0000000DA0281FFD9F1DB20A4A62EAF00A021
:1007F000C0D30000A1C8D30000AED580A81F408D93
:1008000014200035001E001F0020002100220029B6
:100810000014001A000800150017002B0004001631
:1008200000070009000A00E1001D001B0006001976
:10083000000500E300E200E000777C2800A8003516
:1008400000270026002500240023002A00130012A0
:10085000000C0018001C00340033000F000E000DC7
:10086000000B00E50038003700360010001100E7EB
:1008700000E600E400787C2C00000035001E001F1C
:1008800000200021002200290014001A0009001392
:10089000000A002B0004001500160017000700E1F5
:1008A000001D001B00060019000500E300E200E047
:1008B00000777C2800A800350027002600250024AA
:1008C0000023002A0033001C0018000F000D003424
:1008D0000012000C00080011000B00E50038003782
:1008E00000360010000E00E700E600E400787C2CE3
:1008F00000000001003A003B003C003D003E003596
:10090000001E001F0020002100220001001E021F07
:100910000220022102220201002E002D002E022FB1
:100920000230020100010001000100010001004449
:100930000043004200410040003F004500270026E0
:10094000002500240023003102270226022502246C
:10095000022302010031003302330030002F000176
:10096000000100010001000100010001000100017F
:10097000000100010001000100490046006500007F
:100980000000000100E200E000E100000039000189
:10099000001D011B010601190100000100010001F9
:1009A000000100010001000100010001000100013F
:1009B0000001002A002A01437E5200427E4B002A99
:1009C000004C004F00510050004E00010000004557
:1009D0007E0000447E0000010001000100010001D2
:1009E0000001000000000000000000000000000006
:1009F0007C0000407E417E1D700000000000001D54
:100A00007000000000000000000000000000000076
:100A100000000001000100010001000100000000D1
:100A200000000000000000000000000000000000C6
:100A30000000000000000000000000A900A800AABB
:100A400000000000000000AB00AE00AC00000001A0
:100A500000010001000100010000000011241FBE80
:100A6000CFEFDAE0DEBFCDBF11E0A0E0B1E0E0E320
:100A7000F3E502C005900D92A83AB107D9F725E039
:100A8000A8EAB1E001C01D92A034B207E1F70E94CC
:100A9000DF1F0C9444290C940000292F30E021150D
:100AA0003105E9F49C0180E0A90174E05695479571
:100AB0007A95E1F74115510511F08C5F9A01A90172
:100AC00056954795569547954115510511F08E5FFE
:100AD0009A0136952795232B09F08F5F089588E0BA
:100AE000E3CF9093F8048093F70408959093FA0469
:100AF0008093F904089521E030E002C0220F331FF3
:100B00008A95E2F78091F9049091FA04822B932B55
:100B10000E947605089521E030E002C0220F331FC5
:100B20008A95E2F7209530958091F9049091FA0426
:100B3000822393230E94760508959A3098F5863093
:100B400088F5E82FF0E086E0989FE00DF11D112474
:100B50008E2F877041E001C0440F8A95EAF783E049
:100B6000F695E7958A95E1F7EE0FFF1FEE0FFF1F51
:100B7000E753FB4F20E030E070E05191DF01119727
:100B8000CB01022E02C0969587950A94E2F78170F8
:100B900081958527842385278C932F5F3F4F2430B1
:100BA000310559F708959A3078F5863068F5E82FC1
:100BB000F0E086E0989FE00DF11D11249E2F9770C4
:100BC00083E0F695E7958A95E1F7EE0FFF1FEE0FAC
:100BD000FF1FE753FB4F40E050E080E0219130E001
:100BE000092E02C0369527950A94E2F72170332723
:100BF000042E01C0220F0A94EAF7822B4F5F5F4F49
:100C00004430510559F7089580E00895E091F904C2
:100C1000F091FA0421E030E0D90102C0AA0FBB1F15
:100C20008A95E2F7CD01D90102C0AA0FBB1F6A95D0
:100C3000E2F7BD018A2B972B02C0220F331F4A9582
:100C4000E2F7AF01482359238417950731F4CF0108
:100C5000822B932B0E947605089520953095C9012B
:100C60008E239F23F7CF809100059091FF04981366
:100C700001C008958F5F8770FACF9091FB04809533
:100C800089238093FB04282F277021110DC0891719
:100C900059F09091FD0492FF07C086958695869540
:100CA0000E948B051092FB0408958091F4049091AA
:100CB000FE04892BA091F504A115F9F090914C0147
:100CC000911539F09091FC047EE124EB31E097FD21
:100CD00003C076E02CEA31E0A90190E0FA016081DE
:100CE0004F5F5F4F61119F5F672F641B620F611140
:100CF000F5CF91111092F5048A2B0895982F9095B5
:100D00008091F40489238093F40408957A30B8F430
:100D10006630A8F48530B0F4E62FF0E096E0799FD5
:100D2000E00DF11D11249CE3899FE00DF11D1124BC
:100D3000EE0FFF1FED5FF74F85919491089580E0CE
:100D400090E0089581E0FCCF803E9105D9F1C8F490
:100D50008133910509F482C048F48932910509F480
:100D600072C08A32910509F480C0089589339105D3
:100D7000E9F082389105D1F08533910509F45EC020
:100D80000895843E9105D9F148F4823E910539F1E8
:100D9000833E910549F181EE90E00895863E9105EC
:100DA000C9F1873E910509F43EC008952091FC04E5
:100DB0002370211164C02091FD0423FF14C089E237
:100DC00090E008952091FC0420FD45C03091FD0481
:100DD00030FF09C024FD24C083EE90E008952091E7
:100DE000FC0422FDF7CF08952091FC0422FD44C0AD
:100DF0003091FD0430FD43C024FFF5CF11C0209198
:100E0000FD0421FFF0CF8091FC0484FD09C087EE32
:100E100090E008952091FC0423FFE5CF24FFF7CF55
:100E200080E090E008952091FC0423FD2BC03091D8
:100E3000FD0431FFE1CF84EE90E008952091FC04A1
:100E400025FFD1CFBCCF2091FC0425FD1EC02091F1
:100E5000FD0423FFC8CF89E390E008952091FC04AE
:100E600026FFC1CF8AE290E008952091FC0426FF7E
:100E7000BACF81E390E0089582EE90E0089580EE8D
:100E800090E0089586EE90E0089585E390E008955F
:100E90009091FC0492FF10C041E0282F247124306F
:100EA00009F040E031E0282F2871283009F030E0C7
:100EB000431711F02CE0822793FF10C041E0282F48
:100EC0002471243109F040E031E0282F28712831C5
:100ED00009F030E0431711F02CE082273091FD0437
:100EE00030FF10C051E0282F2171213009F050E06F
:100EF00041E0282F2871283009F040E0541711F004
:100F000029E0822731FF10C041E0282F21712131D3
:100F100009F040E031E0282F2871283109F030E055
:100F2000431711F029E0822794FD877E08951F93CF
:100F3000CF93DF930E94A406EC01811522E592076E
:100F400008F05DC0811540E5940708F0DBC0803EE5
:100F5000910528F58D3C910508F0ACC0883A9105C3
:100F600078F4853A910508F0A2C08130910509F422
:100F700041C00497813A9105E8F1C0E0D0E03AC061
:100F8000885A91094B97C8F7C85AD0E0CC0FDD1F9B
:100F9000CE58DE4F0990D881C02DD4642BC0811566
:100FA00050E49507F8F4C11580E2D80708F0C3C0F3
:100FB000C83ED105F8F0CE019A9581159F41E8F61B
:100FC0008D2F0E944807182FCE0199270E94A40652
:100FD000212F30E0322F2227E901CC27DF71C82BE7
:100FE000D92B08C099270E94A406CC27DF70C82BF4
:100FF000D92BD06ACE01DF91CF911F91089580380F
:1010000042E59407C8F5803652E5950708F05BC0C5
:10101000C03482E5D807D0F4C03292E5D90708F091
:101020004BC08C2F8695869520E2829FC0011124AB
:10103000C37021E030E0A90102C0440F551FCA95DA
:10104000E2F7EA01C82BD92BDD68D4CF8C2F869527
:101050008695877050E2859FC0011124C37021E0FE
:1010600030E0A90102C0440F551FCA95E2F7EA011A
:10107000C82BD92BDC68BECF803C52E5950758F4CD
:101080008F71C03AD245A0F590E0982F8827EC01E7
:10109000C46FD06AAFCF805C9245809708F06DCF67
:1010A000DC2FCC27CC27DF71C06FD06AA3CFA497E9
:1010B000D064A0CFD0659ECFCF71D0E0DC2FCC27FD
:1010C000C16FD06A97CF86958695877020E2829F00
:1010D000C0011124C37021E030E0A90102C0440F17
:1010E000551FCA95E2F7EA01C82BD92BDA6882CFDF
:1010F0000E944807C82FD0E0DC2FCC27CC27DF7117
:10110000D06278CF8F710E94480765E0D695C79569
:101110006A95E1F7CF70D0E0DC2FCC27282F30E0A4
:1011200084FF05C054E0220F331F5A95E1F7C22B0C
:10113000D32BD0695FCF8D2F8F710E944807182F56
:10114000CE0199270E94A406212F30E0322F2227BA
:1011500022273F71282B392BE901D2CFA0E0B0E044
:10116000E4EBF8E00C947F288C01E090F904F09017
:10117000FA048091F7049091F804E82AF92ACFE064
:10118000D0E0CC24C394D12CC6010C2E02C0880F11
:10119000991F0A94E2F78E219F21892B49F4219708
:1011A00098F7B12C8B2DCDB7DEB7E9E00C949B28D6
:1011B000BC2EB8018C2F0E9486060E9497070197CB
:1011C00071F3F0CF0F931F93CF93FC0185810081C2
:1011D0001181811591F0611581F0C8010E94AE085E
:1011E000C82F682FC8010E949D05B8018C2F0E944E
:1011F0008606CF911F910F910895C8010E94D305D3
:10120000C82FF3CFCF93DF93D82FC92F0E94AE08FA
:101210006D2F7C2F0E9486060E949707DF91CF9149
:101220000895FC0184818115A1F0808191810E9443
:101230000209282F92959F70963099F060F4925F82
:101240009F70923030F4203F89F038F481E0283EDE
:1012500038F080E008959A5FF3CF81E0243FC9F72A
:10126000089581E0283E20F0213FF9CF81E00895E4
:10127000089580E00895F894E82FE295EF70F0E08B
:1012800041A18F7021E030E0B90102C0660F771FE5
:101290008A95E2F7CB01962F9095942391A392A182
:1012A000892B82A37894089581E08093680408953F
:1012B00090915304292F30E070915404A9014F5F9D
:1012C0005F4F437055277417150689F02F5A3B4F0F
:1012D00060FB87F9F90184839F5F937090935304B7
:1012E000809151048F5F8093510481E0089580E0E4
:1012F000089590E06115E9F0895F9E4FFC018081BF
:101300008F3FB1F0E82FE295EF70F0E041A18F70D0
:1013100021E030E0B90102C0660F771F8A95E2F73D
:10132000CB01962F9095942391A392A1892B82A310
:101330000895885F9E4FE2CF90E06115A9F0895F24
:101340009E4FFC0120812F3F91F0E22FE295EF703C
:10135000E05EF0E0808190E02F7002C09595879567
:101360002A95E2F781700895885F9E4FEACF80E06A
:101370000895FC01680F791F8FEF41E39191892750
:1013800028E030E0982F990F87FF09C0892F842724
:1013900021503040B9F7E617F70781F70895892FF4
:1013A000F7CF282F35EB2303C001112497FF04C08A
:1013B00080589109892F089580589F4FFBCF8091C5
:1013C000EB0480FD14C081FD14C082FD16C0809125
:1013D000EA04811581F08E3180F420E5829FC001FE
:1013E00011246EE170E00E94B928862F089584E1EF
:1013F000089588E2089588E0089580E50895809131
:10140000EB0480FD17C081FD17C082FD19C08091DB
:10141000E904811599F0883298F428E0829FC00190
:10142000112468E270E00E94B9286115710551F03D
:10143000862F089562E0FCCF64E0FACF61E0F8CF38
:1014400068E0F6CF81E0089580919704811559F006
:10145000E091BF04F091C004309729F00190F08131
:10146000E02D0995089580E00895A3E0B0E0EBE356
:10147000FAE00C9486289C018091F6019091F70186
:1014800082179307A1F03093F7012093F601E091C2
:10149000BF04F091C004309751F083E089833B830F
:1014A0002A830084F185E02DCE01019609952396CB
:1014B000E2E00C94A228A3E0B0E0E1E6FAE00C94AC
:1014C00086289C018091F4019091F5018217930781
:1014D000A1F03093F5012093F401E091BF04F09165
:1014E000C004309751F084E089833B832A830084D1
:1014F000F185E02DCE01019609952396E2E00C944A
:10150000A22890914C019115C1F09091FC0497FF95
:1015100014C0E82FE695E695E695803FF8F4F0E0F4
:10152000EE54FE4F877021E030E001C0220F8A9513
:10153000EAF78281822B82830895ACEAB1E0EFEF73
:1015400090E02D91821751F0EF3F19F4211101C065
:10155000E92F9F5F9630A9F7EF3F09F408950E2E0B
:10156000000CFF0BE655FE4FE6CF90914C01911514
:10157000E1F09091FC0497FF18C0E82FE695E695FE
:10158000E695803FF0F4F0E0EE54FE4F877021E0E6
:1015900030E0A90102C0440F551F8A95E2F7CA0145
:1015A00080959281892382830895ECEAF1E09191FC
:1015B000891303C0DF0111971C9251E0E23BF5074C
:1015C000B1F708952FB7F89460917B0470917C0473
:1015D00080917D0490917E042FBF08950F931F93F7
:1015E00080919704811529F00E94E20A1F910F91C2
:1015F00008950E94E20A0091990410919A042091A2
:101600009B0430919C04600F711F821F931FEECFCB
:1016100087E797E7909301088093000888E19AE0B4
:101620000FB6F894A895809360000FBE9093600069
:10163000FFCF8091F3010895FC019B018091E901A6
:101640009091EA018617970740F0672B29F4809163
:10165000E8008E778093E800C90140E0009741F4EC
:10166000411106C08091E80082FF2FC080E00895FC
:1016700020913B042115A9F12530A9F12091E80022
:1016800023FD2DC02091E80022FDECCF2091E80041
:1016900020FFE4CF3091F3002091F200009719F081
:1016A0002830310558F041E02830310509F040E09C
:1016B0002091E8002E772093E800D0CF419140930D
:1016C000F10001972F5F3F4FE9CF80913B048115D7
:1016D00041F0853041F08091E80083FFC3CF81E085
:1016E000089582E0089583E008958091E30187FFE3
:1016F00013C08091E80082FF06C08091E8008B77DC
:101700008093E800089580913B048111F2CF089501
:1017100080913B048115D9F38091E80080FFF8CFD8
:101720008091E8008E77ECCF2091E4003091E500C5
:1017300095E6A9018091EC008170811531F08091CE
:10174000E80080FF06C080E008952091E80022FDB7
:101750001AC080913B04811589F0853089F0809111
:10176000EB0085FD0FC02091E4003091E5004217A9
:10177000530701F39A95E9F684E0089582E008950D
:1017800083E0089581E00895E8EDF0E080818E7FA8
:1017900080831092E2001092DA001092E100A0EE35
:1017A000B0E08C9181608C9380818F77808319BCAD
:1017B000A7EDB0E08C918E7F8C9380818F7E8083AB
:1017C0001092E2010895982F9093E900242F762F2C
:1017D00050E0981731F07091EC002091ED0050919D
:1017E000F00021FD06C09F5F973071F78093E900FC
:1017F00008953091EB003E7F3093EB003091ED0087
:101800003D7F3093ED003091EB0031603093EB0081
:101810007093EC002093ED005093F0002091EE00C7
:1018200027FDE1CF0895A0E0B0E0E9E1FCE00C94F1
:101830008028C8EDD0E088818F7E8883E7EDF0E0D6
:1018400080818160808384E082BF81E08093E201B7
:1018500088818E7F888302EE10E0F801108210925A
:10186000DA0081EEC82ED12CF601108288818F77A4
:10187000888388818068888388818F7D888319BC6C
:1018800010923B041092E10110923A041092E00190
:1018900090EEE92EF12CF70180818B7F8083888187
:1018A0008160888342E060E080E00E94E30BF60103
:1018B00080818E7F8083F801808181608083808138
:1018C00088608083F70180818E7F8083888180613A
:1018D0008883CDB7DEB7E8E00C949C28E091000542
:1018E0009091FF0427E0E91302C080E00895AE2F35
:1018F000B0E02E9FF0011124EF5FFA4F31813613D3
:1019000006C03081381303C03581341304C0FD0193
:101910003196E770E8CF81E008950F931F93CF933E
:10192000DF938B01EA0190913B04943059F5809349
:10193000E9008FEF9091E80095FD06C095ED9A952E
:10194000F1F700008A95B1F78091E80085FF1AC091
:101950000E94940B811111C08091E80085FD06C0A2
:101960008091E8008E778093E800F2CFF8018191B2
:101970008F018093F100219779F78091E8008E77AD
:101980008093E800DF91CF911F910F910895CF933D
:10199000DF93D82FC92F48E050E0682F792F81E0DE
:1019A0000E948D0C88E0ED2FFC2FABEEB1E0019092
:1019B0000D928A95E1F7DF91CF910895BC0140E245
:1019C00050E082E00E948D0C0895BC0146E050E09A
:1019D00082E00E948D0C0895BC0143E050E082E05B
:1019E0000E948D0C0895A0E0B0E0E9EFFCE00C94BB
:1019F0007E28F82EE92EB62EA72E8A018091DC01D2
:101A0000CC24C394D12C8A3018F48AE0C82ED12C6F
:101A1000C1E0D0E06B2D7A2D8F2D9E2DF801099518
:101A2000811116C02196CC16DD0694F0CC9FC00122
:101A3000CD9F900D900D112420E030E045E34A95B4
:101A4000F1F700002F5F3F4F28173907B9F7E2CFB2
:101A5000CDB7DEB7EAE00C949A289091FD0492FB92
:101A6000222720F9281779F080FB92F99093FD0442
:101A70006091FC047091FD0484E090E00E942E29A6
:101A800082E00E943D06089580914C01811559F134
:101A90008091FC0487FF27C00E9455068093B30104
:101AA00040E250E06FE974E082EB91E00E94DC28B4
:101AB000892BC1F080E2E2EBF1E0AFE9B4E0019004
:101AC0000D928A95E1F7E091BF04F091C004309740
:101AD00049F086E08093B2010480F581E02D82EB2D
:101AE00091E0099508950E9455068093AA0148E067
:101AF00050E061EC74E08AEA91E00E94DC28892BD6
:101B000089F388E0EAEAF1E0A1ECB4E001900D92FB
:101B10008A95E1F7E091BF04F091C004309711F38A
:101B20000280F381E02D8AEA91E0DBCF811539F064
:101B30009091F404892B8093F4040E94440D08953D
:101B4000811521F00E947E060E94440D0895A1E0B7
:101B5000B0E0EDEAFDE00C947828462E4A01522EC2
:101B6000C32E3701A82E880FBB08C5010E94EE279F
:101B7000D82E811509F475C0C50133E0880F991F6F
:101B80003A95E1F7FC01EC5EFE4F2381422F50E0D5
:101B9000211511F041E050E08C5E9E4FFC01648104
:101BA000758161587B4FCE0101960E94E928F401AE
:101BB00040815181628173812FB7F89480917B04B9
:101BC00090917C04A0917D04B0917E042FBF841B72
:101BD000950BA60BB70B84369105A105B10538F41A
:101BE000B301C8010E94B90999818917D1F1E42C88
:101BF000042C000CFF08C7010E94EE27D82E81118B
:101C000006C0D12C8D2D2196E0E10C949428C701BB
:101C100023E0880F991F2A95E1F7FC01EC5EFE4F47
:101C20002381422F50E06216710408F4A3018C5EF8
:101C30009E4FFC016481758161587B4F852D9C2DE1
:101C40000E94E928B301C8010E94B909998189134A
:101C5000D8CF0E94E20AF401608371838283938368
:101C6000D1CFA301B801852D9C2D0E94E928CACFB0
:101C7000A5E0B0E0EEE3FEE00C9480286B0185E087
:101C8000E82EF12C00E814E09E012F5F3F4F47E75C
:101C900054E061E080E00E94A70D811549F095E0D5
:101CA000FE013196A2E7B4E001900D929A95E1F71A
:101CB00095E0E2E7F4E0D60101900D929A95E1F704
:101CC0002596E8E00C949C28A8E0B0E0EAE6FEE067
:101CD0000C94822888E0E82EF12C0BE814E09E0199
:101CE0002F5F3F4F4AE654E064E083E00E94A70D77
:101CF000182F811589F190918A04809169049817B1
:101D000059F100E090918E0480918D048917F1F0D3
:101D1000E92FF0E0ED57FB4F848587FB662760F9DC
:101D20009F5F937090938E0490918C049F5F90932B
:101D30008C048F770E945809082F8111E3CF85E02A
:101D400090E00E94EE27182F102302C00111F7CF58
:101D500080918A0480936904812F2896E6E00C9490
:101D60009E28CF93DF93D82FC92F45E050E065E838
:101D700074E00E94DC289C0140916E0450916F0435
:101D80006091700470917104EFB7F89480917B04B6
:101D900090917C04A0917D04B0917E04EFBF841BE0
:101DA000950BA60BB70B84369105A105B10510F470
:101DB000232B11F1809125019091260181589B4F91
:101DC00020912401422F50E0263010F045E050E0F1
:101DD0006D2F7C2F0E94E92882E090E00E94EE2780
:101DE000811559F00E94E20A60936E0470936F04AB
:101DF000809370049093710481E0DF91CF910895F6
:101E0000A4E0B0E0E6E0FFE00C9485284091640493
:101E10005091650460916604709167042FB7F8943F
:101E200080917B0490917C04A0917D04B0917E040C
:101E30002FBF841B950BA60BB70B11E084369105C1
:101E4000A105B10578F10E94EE0ADC01CB010296F2
:101E5000A11DB11D89839A83AB83BC838091450109
:101E60009091460181589B4F20914401422F50E0B0
:101E7000253010F044E050E0BE016F5F7F4F0E94BC
:101E8000E92886E090E00E94EE27182F811551F096
:101E90000E94E20A60936404709365048093660470
:101EA00090936704812F2496E3E00C94A128AB0162
:101EB00024E630E0BC0188E70E9406269C0181E010
:101EC000232B09F080E0089580913204811569F098
:101ED00080913104811549F062E070E08EEA90E073
:101EE0000E94570F8111109231040895809132049D
:101EF0008115F9F00E94E20ADC01CB01805A95417C
:101F0000AF4FBF4F8093330490933404A0933504B4
:101F1000B09336048091310481110BC062E070E00F
:101F20008CEA90E00E94570F811519F081E08093B0
:101F3000310408951F93CF93DF93982F162F81E0DC
:101F40009A3019F09D3039F480E00E942B10DF9117
:101F5000CF911F910895C0912E02D0912F0286E05B
:101F6000FE01AAE1B2E001900D928A95E1F7903E60
:101F700090F186E0FE0111928A95E9F7C0912E0258
:101F8000D0912F02111133C046E050E0BE018AE12A
:101F900092E00E94DC289E0120533240892B91F56B
:101FA0002A5F3F4F40913704642F70E0C9010E94BF
:101FB0006228481B463010F4240F311D211572E0B1
:101FC000370710F020E030E0205D3D4F30932F02C6
:101FD00020932E02BCCFF6E09F9FB00111246F55D5
:101FE0007D4F46E050E0CE010E94D328C7CF9E012E
:101FF0002A5F3F4FFE012E173F0731F28081809507
:102000008193F9CFC90145E0969587954A95E1F707
:1020100041E050E0BA0102C0660F771F8A95E2F7EF
:10202000CB0160912C0270912D02862B972BB90168
:102030006B5F7F4FE5E076956795EA95E1F702C023
:10204000440F551F6A95E2F7842B952B90932D0230
:1020500080932C02A5CFCF93382FE0912E02F091E0
:102060002F02E053F24020913704622F70E0CF013D
:102070000E946228281B822F311569F066E00E94B9
:10208000AD28C82FC15010F4CF91089560E080E2D0
:102090000E949A0FF7CF9F01280F311D2115324062
:1020A00018F080E0E0E0F0E08E0F9F2F911D805D42
:1020B0009D4F90932F0280932E02E6CF1F93CF93D4
:1020C000DF93EC01162FFE018491811104C0DF9192
:1020D000CF911F910895612F0E949A0F2196F3CFFF
:1020E0000E945E1081E00E942B1008951F921FB67F
:1020F0001F9211248F939F93AF93BF9380913904C4
:10210000811113C080917B0490917C04A0917D0487
:10211000B0917E044196A11DB11D80937B049093E4
:102120007C04A0937D04B0937E04BF91AF919F91F6
:102130008F911F901FBE1F9018952FB7F894809114
:102140007B0490917C04A0917D04B0917E042FBF0C
:1021500008950E949D102091EE043091EF04232BEE
:10216000211521F080936104909362042091F00482
:102170003091F104232B211521F080935F0490937B
:102180006004E091BF04F091C004309749F082E010
:102190008093EC040680F781E02D8CEE94E00995A5
:1021A00008952091EE049091F1043091F0046115AE
:1021B00009F458C04091EF04242B292B232B21151F
:1021C00031F098E09093EA0491E09093E904E3E31E
:1021D000E80FE33150F4F0E0EA5BF64D0C94CD28C3
:1021E0000E94DF0981958093EF040E94A910089551
:1021F0000E94DF09F8CF0E94DF0981958093EE04E9
:10220000F4CF0E94DF09FACF0E94FF098093F00407
:10221000ECCF0E94FF098195F9CF0E94FF098195BB
:102220008093F104E2CF0E94FF09FACF815D990B00
:1022300021E030E001C0220F8A95EAF78091ED0499
:10224000822B8093ED04D1CF8091EB048160809349
:10225000EB04CBCF8091EB048260F9CF8091EB044B
:102260008460F5CF8D3C59F48091EF0487FF0DC059
:102270001092EF04211559F41092EA0408C08E3C24
:1022800081F48091EF0418169CF3211581F0809160
:10229000F0049091F104892B8111A7CF1092E904E9
:1022A000A4CF8F3C41F427FFF0CF1092EE04809131
:1022B000EF048115E0CF803D19F41216B4F3E5CF99
:1022C000893D29F413160CF71092F004DECF8A3DF5
:1022D00019F437FFDACFF8CF8B3D29F497FFD5CF2C
:1022E0001092F104D2CF8C3D19F41916CCF3CDCF56
:1022F0009FE2980F983090F4815D990B41E050E097
:10230000BA0102C0660F771F8A95E2F7CB0180956C
:102310009091ED0489238093ED04B7CF8D3D31F486
:102320008091EB048E7F8093EB04AFCF8E3D21F440
:102330008091EB048D7FF7CF8F3D09F0A6CF809180
:10234000EB048B7FF0CFCF93C82F8115B9F18CEFC1
:102350008C0F813AA8F580914C01811501F1809193
:10236000FC0487FF1CC0EC2FE695E695E695F0E0AF
:10237000EE54FE4F828190E04C2F477021E030E018
:1023800002C0220F331F4A95E2F782239323892B41
:1023900081F08C2F0E94B50A0E94440D0AC0ECEA1D
:1023A000F1E082EB91E02191C21799F38E179F071C
:1023B000D1F78C2F0E94810A0E94440DCF9108957D
:1023C00080E28C0F883068F4C77081E090E001C033
:1023D000880FCA95EAF7C091F404C82BC093F4049F
:1023E000EBCF8BE58C0F833038F42C2F2452330B3A
:1023F000C9010E94350AE2CFE8E5EC0FEB3150F459
:10240000F0E0EE0FFF1FEE58FE4F808191810E9499
:102410005B0AD4CF83E38C0F833180F661E08C2F8D
:102420000E94D110CBCF811581F19CEF980F913A8A
:1024300028F40E94B50A0E94440D089590E2980F76
:10244000983050F4877091E001C0990F8A95EAF7AF
:10245000892F0E947E06EFCF9BE5980F933028F4DA
:1024600080E090E00E94350A089598E5980F9B312E
:1024700028F480E090E00E945B0A089593E3980FAF
:10248000933118F460E00E94D11008951F93CF9308
:10249000DF93182FEB010E94A3118FE99FE00197B2
:1024A000F1F700C000002197C1F7812F0E9413129D
:1024B000DF91CF911F91089580E090915404209175
:1024C0005304291739F1E92FF0E0EB5AFB4F8081D3
:1024D00087FB222720F98F779F5F93709093540496
:1024E000909152049F5F90935204811549F081307E
:1024F00079F46AE070E08EE4211108C08BE406C034
:102500006AE070E089EA211101C08AEA0E9446125D
:1025100081E0D3CF08951092F40480914C0181158D
:1025200039F18091FC0487FF23C0E4EBF1E08EE1F8
:10253000DF011D928A95E9F780E090E00E94350A5C
:1025400080E090E00E945B0A1092FE040E94440D1D
:1025500086E0ECEEF4E0DF011D928A95E9F7109237
:10256000EA041092E9041092EB040E94A910089565
:10257000ECEAF1E086E0DCCF0E948B122FEF84E3DF
:102580009CE0215080409040E1F700C0000088E1CD
:102590009AE00FB6F894A895809360000FBE9093D0
:1025A0006000FFCFAAE2B0E0E8EDF2E10C948528EC
:1025B00083EE91E0FC0101962091F100208321E05F
:1025C0008B3E9207B9F78091E401893009F456C037
:1025D000C8F4823009F4B2C0833009F481C081307C
:1025E00071F18091E80083FFE7C08091E301909151
:1025F000E4019A3008F0E0C0E92FF0E0E75AF64D28
:102600000C94CD288A3009F488C08B3051F7809122
:10261000E301813231F78091E7019091E801892B44
:1026200001F78091E800877F8093E8000E94750B96
:102630008091E50180934C010E948B12D2CF809152
:10264000E301813A71F68091E800877F8093E8008A
:102650008091E7019091E801892B61F060E080E0D2
:1026600090E070E00E941C0B8091E8008B778093D3
:10267000E800B7CF68E08BEE91E0F3CF8091E30103
:10268000813209F0AECF8091E7019091E801029785
:1026900008F0A7CF8091E800877F8093E8008091C1
:1026A000E80082FF18C09091F3008091F200029739
:1026B00031F48091F100813011F0863021F4809165
:1026C000F1008093F3018091E8008B778093E8001C
:1026D0000E94750B86CF80913B048111E0CF81CFA2
:1026E0008091E301813A09F07CCF8091E7019091DC
:1026F000E801892B09F075CF8091E800877F8093EE
:10270000E8008091E80080FFFCCF80914C0180932D
:10271000F1008091E8008E77D9CF8091E30181327A
:1027200009F05FCF8091E800877F8093E8000E94E6
:10273000750B8091E6018093DF0153CF8091E30117
:10274000813A09F04ECF8091E800877F8093E800BE
:102750008091E80080FFFCCF8091DF01D8CF8038E6
:1027600089F0823849F58091E7018F70873020F534
:102770008093E9008091EB0085FB882780F9109217
:10278000E90007C090913A04919592708091E00120
:10279000892B9091E800977F9093E8008093F10057
:1027A0001092F1008091E8008E7723C0811116C04D
:1027B0008091E501813011F18091E80083FF0AC02A
:1027C0008091E800877F8093E8008091EB00806231
:1027D0008093EB00AA96E3E00C94A128823061F785
:1027E0008091E501811589F01092E9008091E8005F
:1027F000877F8093E8000E94750BDECF81E09330E5
:1028000009F080E080933A04EFCF8091E7018F7068
:102810002FEF280F263080F68093E9002091EB00FF
:1028200020FFE2CF933031F48091EB0080628093FF
:10283000EB00DACF9091EB0090619093EB0021E0F8
:1028400030E0A90102C0440F551F8A95E2F740937A
:10285000EA001092EA008091EB008860E8CF8111D5
:10286000ABCF1091E5011F778091E3008078812B39
:102870008093E3008091E800877F8093E8000E94C6
:10288000750B8091E80080FFFCCF8091E3008068A9
:102890008093E30083E0111101C082E080933B0448
:1028A0008BCF8058823008F087CF4091E50150915E
:1028B000E6014C3D83E0580799F583E08A838AE27C
:1028C00089834FB7F894DE01139620E03EE051E291
:1028D000E32FF0E050935700849120FF03C08295CE
:1028E0008F703F5F8F708A30C8F0895C90E08D9365
:1028F0009D932F5F243161F74FBF8091E800877F60
:102900008093E8006AE270E0CE0101960E941C0B01
:102910008091E8008B778093E8004ECF805DE6CF12
:102920002091E7013091E801852F992783309105A7
:1029300009F160F48130910509F472C0029709F041
:102940003BCF8BE390E0EAEAF1E029C081329105C8
:1029500009F45AC0829709F02FCF2115310509F4E7
:1029600069C02130310509F027CF86EB90E0E0EB1C
:10297000F0E015C0CA0199274130B1F182309105CC
:1029800009F43AC0892B09F017CFE1E2F2E0E491B3
:102990008E2F90E0E1E2F2E0009709F40DCF209154
:1029A000E800277F2093E8002091E9013091EA01B7
:1029B0008217930708F49C0140E02115310509F0C6
:1029C0003EC041113CC08091E80082FDA1CF8091C2
:1029D0003B04811509F49CCF853009F499CF80918F
:1029E000E80083FFF0CF94CFE5E0F2E0E4918E2F92
:1029F00090E0E5E0F2E0D0CFE7EFF1E0E4918E2F58
:102A000090E0E7EFF1E0C8CF2115310571F02130FA
:102A1000310509F0D1CE89E090E0E5EDF1E0BFCFDE
:102A200082E190E0E5EEF1E0BACF89E090E0ECEBF6
:102A3000F1E0B5CF84E490E0E6E6F1E0B0CF80913C
:102A40003B04811509F464CF853009F461CF80918E
:102A5000E80083FD5DCF8091E80082FDB4CF8091D6
:102A6000E80080FFAACF9091F3008091F200211539
:102A7000310519F08830910550F041E0089709F0D0
:102A800040E08091E8008E778093E80096CF4491F3
:102A90004093F1003196215031090196E8CF8038FA
:102AA00009F08ACE8091E800877F8093E8008091CA
:102AB000E1018093F10076CE81117ECE1091E50187
:102AC000123008F079CE8091E800877F8093E8008B
:102AD0001093E1010E94750B111581F084E0809341
:102AE0003B0442E061EC81E00E94E30B42E261ECD6
:102AF00082E00E94E30B80913B045ECE8091E30074
:102B000087FDECCF81E0EBCF9C014FB7F89480912B
:102B10007B0490917C04A0917D04B0917E044FBF12
:102B2000821B930B08952F923F925F926F927F9238
:102B30008F929F92AF92BF92CF92DF92EF92FF92CD
:102B40000F931F93CF93DF9380913204811509F483
:102B500087C080911802909119020E948415C29733
:102B600008F45FC00E949D10909319028093180290
:102B700080E392E090932F0280932E02809197043D
:102B800060E0811509F486C08EE992E00E945E1033
:102B90008091F9049091FA040E944D05811541F04D
:102BA000813041F160E08FE892E00E945E1005C044
:102BB00060E089E992E00E94701060E08CE892E0A9
:102BC0000E945E1060E086E892E00E9470108091A2
:102BD000F9049091FA040E944D05823009F452C024
:102BE00068F0833009F452C060E08EE692E00E9403
:102BF000701009C060E084E992E0DDCF60E080E819
:102C000092E00E945E1060E08BE692E00E945E100F
:102C10000E94240A81FB662760F985E692E00E9403
:102C2000701080912C0290912D02892BC1F580911A
:102C300031048115A9F00E94E20A00913304109139
:102C400034042091350430913604601B710B820BE3
:102C5000930B6F3F7F4F8F4F9F4710F40E94640F7D
:102C6000DF91CF911F910F91FF90EF90DF90CF9068
:102C7000BF90AF909F908F907F906F905F903F90AC
:102C80002F90089560E08AE792E0BBCF60E084E790
:102C900092E0B7CF85E292E00E945E10C2CF8091B1
:102CA0003204811521F2809130048111C0CF0E943D
:102CB000760F20912C0230912D022115310509F457
:102CC000B6CF80E041E050E0082F10E01A01082E56
:102CD00002C0220C331C0A94E2F7B1016223732371
:102CE000672B11F48F5FF0CF9091380490FF95C05F
:102CF000880F880F880F37E0380F20E093E080932B
:102D0000020120930501309303019093060124E60C
:102D100030E047E050E060E071E088E70E94BB25CA
:102D2000892B09F084CFA80125E0440F551F2A956F
:102D3000E1F78091380480FF7CC0E8EFF1E080E2A9
:102D4000DF011D928A95E9F7A1E5B1E00DE411E0FC
:102D500085E5C82E81E0D82E97E0592E772473940C
:102D60008D91E80129918E01240F352F311D205DB1
:102D70003D4FE82FF0E0E850FE4F80E090E0652CFA
:102D8000681A872C082E01C0880C0A94EAF779018A
:102D9000A12CE701B9907E01B820662D6A196770F1
:102DA00070E0DB2D062E01C0DD0F0A94EAF79D2EA0
:102DB0007195619571096770772701C0B6946A951E
:102DC000EAF79B286081962A9082A39468E0A61275
:102DD000E0CF019631968830910589F6CA16DB0658
:102DE00009F0BECF04E610E020E230E048EF51E009
:102DF00060E488E70E945326892B09F018CFE1018F
:102E0000C095D09580912C0290912D028C239D230A
:102E100090932D0280932C020ACF98013695279526
:102E200036952795922F8295880F80763FE1380F4F
:102E300066CF405D5D4F04E610E020E230E0D8CF81
:102E4000FF920F931F93CF93DF93C62FD42F122F90
:102E50008115A9F06093F2040E949D109093DE0109
:102E60008093DD01C77081E001C0880FCA95EAF741
:102E70000E94960DCDB7DEB7E5E00C949F288091B7
:102E8000F204681332C08091DD019091DE010E944E
:102E90008415883C910548F500E20D0FCD17A9F087
:102EA000C770FF24F3948F2D01C0880FCA95EAF7ED
:102EB0000E94A00D083048F48D2F877001C0FF0CD0
:102EC0008A95EAF78F2D0E94960D6AE070E0812FB7
:102ED0000E944612083070F6D77081E001C0880F5A
:102EE000DA95EAF70E94A00DC5CFC77081E001C056
:102EF000880FCA95EAF7F6CFA0E0B0E0E2E8F7E184
:102F00000C9480287C01FC018481811509F46AC03D
:102F100061E0C7010E94E208EC01F7018581C3343A
:102F2000FEE7DF0709F48AC0C0F4C1343EE7D307E7
:102F300009F45DC0C2349EE7D90709F462C0C03409
:102F4000EEE7DE07A1F1FE01E851FC47E730F105AD
:102F500070F4ED59F64D0C94CD28C434FEE7DF072C
:102F600009F485C0C5342EE7D20709F48DC0F701F6
:102F70008581811509F46EC11092F2049E013057CB
:102F80002332310508F066C184E090E00E94FA28FF
:102F90009093FD048093FC04FE01E150F047E2327F
:102FA000F10508F09BC0E659F64D0C94CD2881152B
:102FB00049F061E083E090E00E94102981E090E018
:102FC0000E9471058091FB048770811559F0F7010B
:102FD0008581811539F08091FD0482FF03C082E074
:102FE0000E943D06CDB7DEB7E8E00C949C28811521
:102FF00049F362E083E090E00E94102982E090E0D3
:10300000DFCF9091FD049170811561F084E0911102
:1030100001C081E00E9448070E94960D80E50E9451
:10302000A311A5CF84E0911101C081E00E9448075F
:103030000E94A00D80E50E94131299CF9091FD048B
:103040009170811551F084E0911101C081E00E94DE
:1030500048070E94960D8FE4E2CF84E0911101C0F1
:1030600081E00E9448070E94A00D8FE4E4CF909178
:10307000FD049170811521F08AE4911581F2C9CF88
:103080008AE49115C1F2D1CF9091FD049170811520
:1030900021F09111DBCF8DE4C2CF9111E1CF8DE40E
:1030A000CACF26E241EE61EE0E9420178BCF27E2C5
:1030B00045EE65EEF9CF26E241EE60EEF5CF27E270
:1030C00045EE64EEF1CF26E241EE62EEEDCF27E26F
:1030D00045EE66EEE9CF28E241E0EBCF8091FC04BB
:1030E00081608093FC046091FC047091FD0484E095
:1030F00090E00E942E290E948B1264CF8091FD04E3
:1031000088608093FD04EFCF8091FC048260E9CF5A
:103110008091FC048460E5CF8091FC048860E1CF5D
:103120008091FD048160EDCF8091FD048260E9CF44
:103130008091FC048061D5CF8091FC048062D1CF66
:103140008091FC048064CDCF0E948B128091FC049E
:103150008068C7CF8091FC048C60C3CF8091FD0450
:103160008360CFCF8091FC048E7FBBCF8091FD0424
:10317000877FC7CF8091FC048D7FB3CF8091FC0403
:103180008B7FAFCF8091FC04877FABCF8091FD0414
:103190008E7FB7CF8091FD048D7FB3CF8091FC04EB
:1031A0008F7E9FCF8091FC048F7D9BCF8091FC040C
:1031B0008F7B97CF0E948B128091FC048F7791CFE9
:1031C0008091FC04837F8DCF8091FD048C7F99CF0B
:1031D0008091FC0482FB992790F921E0922790FBD3
:1031E00082F990FB83F97DCF8091FD04982F909513
:1031F00090FB80F990FB81F984CF9091FC04892F9A
:103200008F7B96FF80646DCF0E948B129091FC049F
:10321000892F97FB87F9805864CF61E08EE090E0BA
:103220000E94102960CF60E0F9CF9091FC04892FB3
:103230008F7E94FF806155CF9091FC04892F8E7F03
:1032400090FF81604ECF9091FD04892F877F93FF7F
:10325000886057CFC631FCE7DF0701F59091F40491
:10326000811591F0892F8A7A91E0811101C090E057
:103270009093F304811531F085E30E94810A0E9446
:10328000440DA0CE89E2F9CF8091F304811521F09D
:1032900085E30E94B50AF3CF89E2FBCFC7372CE75D
:1032A000D20709F469C0C8373CE7D30709F473C0F3
:1032B0008115A9F0CA358CE7D80709F499C008F040
:1032C00070C0C130ECE7DE0709F490C0C330FCE702
:1032D000DF0709F485C0C115DC4709F474C0F701A4
:1032E000858100811181811509F486C0C8010E9481
:1032F000AE08C82F682FC8010E949D05B8018C2F09
:103300000E9486060E949707D82FC92FF701D58003
:10331000C680C2948FE0C8228091FB04877081151B
:10332000F9F00D2DD114E9F0892F807F803461F000
:1033300080E28D0F8830A0F0892F807E803221F4CA
:10334000D23070F0C11461F08091FD0482FF08C09A
:1033500082E00E943D068091FB04877001E08111AC
:1033600000E0EC2FE295EF70C03C08F0ABC0F0E05D
:10337000E457F64D0C94CD28811549F082E00E9467
:103380007B0544E063E082E00E9406061BCE82E0FB
:103390000E948B05F6CF811511F083E0F0CF83E01A
:1033A000F7CFCB353CE7D30729F1CC35DC4709F023
:1033B00096CF8091FD0482FB882780F991E08927D0
:1033C0000E942D0D8CCF0E948B129FEFE4E3FCE056
:1033D0009150E040F040E1F700C000000E94080B6F
:1033E0006FEF7FEF80E090E00E942E290E94BC12D8
:1033F00081E0E6CF80E0E4CFC8010E94D305C82F6A
:103400007DCF1C2F1F70C03110F01295107FD1148A
:10341000B9F0111569F080E28D0F883010F0D111EC
:1034200009C08091F404812B8093F4040E94440D20
:103430008D2F40C08091FE04812B8093FE04F6CF37
:103440008D2F0E9413121115E9F180E28D0F883043
:1034500010F0D11104C0812F0E947E0606C0109585
:103460008091FE0481238093FE040E94440D2AC0B3
:103470001C2F1F70C07FC03211F01295107FD11524
:1034800049F0D13009F46BC0D11409F477C0C114EC
:10349000C9F1CECF8091FD0482FD30C0D11469F016
:1034A000111539F08091F404812B8093F4040E946B
:1034B000440D80E00E94A31105C080E00E94131219
:1034C0001111C9CF0115A9F08091FB0480FD11C035
:1034D000F70115828695869586950E947B05C70122
:1034E0000E947C178091FB048695869586950E94A4
:1034F0008B0560E0C7010E94E20874CDD11499F0F9
:10350000C11004C0812F0E94960DDCCFF1E0CF12D4
:10351000D9CF8091F504912F9823191799F2812B17
:103520008093F504CFCFC110CDCF812F0E94A00D85
:103530009091F504812F8923811529F0812F8095A1
:1035400089238093F5048091F604912F9823911597
:1035500009F4B8CF109518231093F604B3CFD11403
:1035600029F026E0C21608F0ADCFCCCF35E0C31667
:1035700008F0A8CF812F0E94A00DA4CFC114D1F3D1
:10358000D93369F48FEF97EEE3E081509040E0404B
:10359000E1F700C000008D2F0E94131293CF8FE33C
:1035A0009CE90197F1F7F5CF8C2F8695869583706E
:1035B000811569F0813009F085CF8D2F9C2F937094
:1035C000D11002C080E090E00E945B0A7BCF8D2F7B
:1035D0009C2F9370D11002C080E090E00E94350AC9
:1035E00071CF6D2D8D2F0E94D1106CCF8C2F8370D9
:1035F000811142C0D1102FC04D2F42954695477082
:10360000440F440F2D2F2F7030E0042E02C0220FE4
:10361000331F0A94E2F780E090E0D4FF09C08FE006
:1036200090E002C0880F991F4A95E2F78095909527
:10363000C695C695C370C230B1F0C33089F04091D1
:10364000F7045091F804C13049F0822B932B842366
:1036500095230E9471050E94240A34CF242B352B18
:10366000822B932BF6CF822B932B2091F704309152
:10367000F80482279327EDCFD11491F1C0FFEBCF4F
:103680004D2F429546954770440F440F2D2F2F70B4
:1036900030E0042E02C0220F331F0A94E2F780E0CC
:1036A00090E0D4FF09C08FE090E002C0880F991F1E
:1036B0004A95E2F780959095C695C695C370C2303D
:1036C000C1F0C33099F04091F9045091FA04C1302F
:1036D00059F0822B932B842395230E947605BBCF30
:1036E000823008F4B8CFCCCF242B352B822B932BF0
:1036F000F4CF822B932B2091F9043091FA04822786
:103700009327EBCFCF70D11439F08C2F0E947B051B
:103710008D2F0E94960D9FCF8D2F0E94A00D8C2F74
:103720000E948B0598CFD23FB1F170F4D03FC9F021
:10373000D13F91F0D11409F464C0C11409F45EC002
:103740008D2F0E94A31187CFD33F61F1D43F91F712
:103750008091FD0482FD34C08C2F8F71D11401F350
:103760001EC0D114A9F095E0C91608F074CFCF712E
:1037700081E090E0FC0102C0EE0FFF1FCA95E2F766
:10378000EF018091F9049091FA048E279D27A5CF2F
:10379000F6E0CF16EACF8C2F8F71D110C1CF0E94E7
:1037A0007B0559CF80E090E0D11409F496CFCF711A
:1037B00081E090E002C0880F991FCA95E2F78DCF93
:1037C000D11489F0CF718C2F0E947B058091FD046C
:1037D00082FF07C08C2F880F880F880F836080932B
:1037E000FB048C2FDCCF81E00E943D0622E0C21654
:1037F00008F431CF82E00E943D062DCF8C2F8F71CF
:10380000CECFC114A1F0D93369F43FEF87EE93E036
:10381000315080409040E1F700C000008D2F0E94A1
:10382000131219CFEFE3FCE93197F1F7F5CF8C2FA5
:103830008F7176CF80913F05803178F480913E057D
:10384000811559F0E09100052091FF0430913A056F
:103850004091390557E02E1301C008956E2F70E096
:103860005E9FF0011124DF01AF5FBA4F14968C9177
:103870001497811561F111968C911197831327C0CC
:103880008C91841324C015968C91159781111FC0BB
:1038900012968D919C91A0913B05B0913C058A1B9D
:1038A0009B0B883C910598F480913F058F70806157
:1038B00080933F05E95FFA4F80818F70806180833C
:1038C00089E395E00E947C170E9433060895FB016E
:1038D0003196E770C0CFADE0B0E0E1E7FCE10C94D9
:1038E0007B288C0186E0F801DE01189601900D928C
:1038F0008A95E1F7F801E080F580A280B380C4806A
:1039000089E3882E85E0982E70903D05711020C0C7
:10391000C114D9F0F11409F419C1C8010E941109A8
:10392000811509F413C187E0F801D40101900D92CB
:103930008A95E1F7F1E0CF1206C0809139059091A8
:103940003A050E9402090E941A1CFF24F39451C0F8
:10395000D0903E0580913B0590913C059501281B38
:10396000390BD11409F4BAC0283C310508F090C0D5
:10397000C11459F390913A05C18080913F0580317F
:1039800008F058C0C91214C0909139059E1110C09A
:10399000F1104AC08F70806180933F0589E395E004
:1039A0000E947C1780913F05F8018683F12C21C08D
:1039B000F1103AC040E06C2D8E2D0E946E0C40E05C
:1039C0006C2D8E2D0E946E0CF82E8111EFCF888504
:1039D00099850E940209292F22952F70903470F446
:1039E0009F702230A0F09115B1F0F80196819031CE
:1039F00090F48F2D2D96EDE00C9497282A5F2F7070
:103A0000223068F0C8010E947C17FD2CF2CF91157E
:103A100011F0811571F3805E883058F3F3CF803F49
:103A200040F3815F8330F9CF80913F0581608093BF
:103A30003F05BCCFC91207C0909139059E1103C044
:103A4000F11409F46CC0C8010E941109811509F430
:103A50007DC0F11409F47AC080913F05803278F07E
:103A60002091390530913A053A832983BC82AB8293
:103A70007D821E828F83CE0101960E947C1787E093
:103A8000F801A9E3B5E001900D928A95E1F75BCFCB
:103A900080913F05803150F489E395E00E947C17C6
:103AA00087E0F40111928A95E9F780CFC11409F4F7
:103AB0004CCF20913A0591812913C5CF90913905BA
:103AC0009E11C1CFF110BFCF8683C8010E947C1721
:103AD00087E0F40111928A95E9F737CF283C310548
:103AE000F8F6C11409F431CFF11481F190913A053F
:103AF0008181981321C0809139058E111DC080915C
:103B00003F0580FD10C0803170F08683807F803F4C
:103B100039F08681982F907F905F8F70892B8683F4
:103B2000C8010E947C1787E0F801A9E3B5E0019085
:103B30000D928A95E1F709CFC8010E941109811100
:103B40009ECF80913F05816080933F05C8010E9410
:103B50007C17FBCEABE1B0E0E0EBFDE10C948528F7
:103B60004E8B5F8B688F798F8A8F9B8F911110920C
:103B7000FE041D8A86E0FE017696DE011F96019006
:103B80000D928A95E1F78B89811529F061E0CE01CC
:103B90000F960E94E20887E0FE013F96DE0118962C
:103BA00001900D928A95E1F7CE0108960E946B1C58
:103BB00081112AC087E0FE013896DE01119601903E
:103BC0000D928A95E1F72091FF04409100058C85C4
:103BD0008115D1F030E0C901019687709927481707
:103BE0001906E9F097E0929FD001939FB00D112440
:103BF000AF5FBA4FFE01319601900D929A95E1F7B1
:103C00008093FF040E94330617E080910005909195
:103C1000FF04891312C06B96E3E00C94A1280E9464
:103C20008B121092FF041092000587E0E9E3F5E0A3
:103C3000DF011D928A95E9F7E7CF189FC001112493
:103C40008F5F9A4F0E946B1C811529F380910005AC
:103C500090E001968770992780930005D6CFA6E063
:103C6000B0E0E5E3FEE10C9484280E949D108C01F5
:103C700080919D0490919E048017910779F019829C
:103C80001A820E949D10BC0149815A8180E090E017
:103C90000E94AA1D10939E0400939D042696E4E0C2
:103CA0000C94A028AFE0B0E0E8E5FEE10C947B289E
:103CB000FE0131968AE0DF011D928A95E9F785E5DC
:103CC000A82E81E0B82E8F014F01EE24E394F12C51
:103CD00020E6C22E21E0D22EF50181915F018F3FB7
:103CE00009F441C0F894E82FE295EF70F0E021A1CB
:103CF0008F70A70102C0440F551F8A95E2F7CA01D1
:103D0000922F982B91A392A18095892382A37894D6
:103D100000C0EAE5F1E031E0712C21912F3F89F0FC
:103D2000A22FA295AF70A05EB0E08C9190E02F70B2
:103D300002C0959587952A95E2F78170811509F45F
:103D400089C080E0782A330FCE16DF0631F7F501FF
:103D5000319780818F3F11F00E943B0950EA5A95BC
:103D6000F1F7D8017C920F5F1F4FBAE5AB16B1E0B7
:103D7000BB0609F0B1CF4AE050E0B40180E292E026
:103D80000E94DC289C01892B41F08AE0F401A0E22A
:103D9000B2E001900D928A95E1F700912B0210E0BC
:103DA000045C1B4F232B09F457C081E08093DB0197
:103DB0000E949D109093DA018093D901809197041D
:103DC000811509F49FC07E01EBE0EE0EF11C85E049
:103DD000D7011D928A95E9F78091DC018A3008F0BD
:103DE0005DC048E35EE0B701C8010E94F30C811595
:103DF00009F476C041EB5EE0B701C8010E94F30C04
:103E0000811509F46DC044E65EE0B701C8010E9467
:103E1000F30C811509F464C040E05FE0B701C8010C
:103E20000E94F30C811509F45BC01092DC018091B3
:103E30002A0290E045E050E0B701845C9B4F0E946D
:103E4000DC2821E02093D801892BE9F52F96EDE0BD
:103E50000C949728832F76CF8091DB01811509F48C
:103E6000ADCF8091D9019091DA010E948415059718
:103E700008F4A4CF45E050E060E272E0C8010E947F
:103E8000DC28892B41F085E0E0E2F2E0D8010190E6
:103E90000D928A95E1F71092DB0190CF8091D601C7
:103EA0009091D7010E948415843F914008F099CFEA
:103EB0008091D801811551F285E0F70111928A9520
:103EC000E9F71092D801A0912A02B0E0A45CBB4FA0
:103ED00085E0FE013B9601900D928A95E1F7B6CF01
:103EE0008091DC018F3F39F40E949D109093D7019F
:103EF0008093D601DDCF8F5F8093DC018A3008F498
:103F000096CFF2CFE0902A02F12CA701445C5B4FE0
:103F10007A0185E0F801A0E8B4E001900D928A955D
:103F2000E1F765E070E080E894E00E94B9098093D1
:103F30007F0485E0E5E8F4E0D70101900D928A95D1
:103F4000E1F788E0E1E5F4E0ABE8B4E001900D9240
:103F50008A95E1F768E070E08BE894E00E94B90987
:103F600080938A04C0909304D0909404E0909504C8
:103F7000F09096048091D2019091D301A091D40148
:103F8000B091D501C816D906EA06FB0609F45ECF42
:103F9000C092D201D092D301E092D401F092D50127
:103FA0000E94E20AC61AD70AE80AF90AC0929904DE
:103FB000D0929A04E0929B04F0929C0447CFCDB734
:103FC000DEB72A970FB6F894DEBF0FBECDBF85B718
:103FD000806885BF85B7806885BF84B7877F84BFC9
:103FE0000FB6F894A8958091600088618093600076
:103FF000109260000FBE80E890E00FB6F8948093B6
:104000006100909361000FBE89E399E09093A9014C
:104010008093A8010E94C40B0E94130C8091E200BF
:1040200084608093E200789480913B04811599F03C
:104030008091E9001091EC001795112717958F706A
:10404000182B1092E9008091E80083FD0E94D212A3
:104050001F701093E90082E084BD93E095BD9AEF54
:1040600097BD80936E001092990410929A0410925A
:104070009B0410929C048091D80080618093D800AA
:104080002AE12A95F1F700C01091D90011701111A1
:1040900004C00E94C40B10923B0410939704109329
:1040A00098041093090111110E94FF26E1E5F4E044
:1040B00088E0DF011D928A95E9F78091090191E07E
:1040C000892780935B048091090190935E0480911D
:1040D000090180910901811106C084EF80930801D4
:1040E00085EF8093070160E080E00E94790961E03C
:1040F00080E00E947909EFE8F1E03197F1F700C024
:10410000000010E080915E04181708F4CEC0809182
:1041100009018091090190E0811101C095E090931F
:104120002B0285E0891B80932A0205E511E04AE510
:10413000E42E41E0F42ED8018D918D018F3F11F0D6
:104140000E943B09E016F106B1F70AE511E0F8011B
:1041500081918F018F3F11F00E943B09F1E0003601
:104160001F07A9F78AE0ECE3F4E0DF01282F1D9296
:104170002A95E9F7E0E2F2E0DF011D928A95E9F77E
:1041800080E090E00E94FA28863E9E4F09F466C0C7
:1041900066EE7EEF80E090E00E942E2960E082E0F3
:1041A00090E00E94102981E090E09093F8048093C1
:1041B000F70461E083E090E00E94102960E074E180
:1041C00084E090E00E942E2960E086E090E00E946A
:1041D000102960E087E090E00E94102940E050E064
:1041E000BA0188E090E00E94222960E084E290E039
:1041F0000E94102960E087E190E00E94102960E0B1
:104200008CE090E00E94102960E08DE090E00E9438
:10421000102919821A821B821C821D821E821F8213
:10422000188648E050E068E170E0CE0101960E94F7
:10423000002940E050E0BA0180E290E00E9422298B
:1042400040E050E0BA018FE090E00E94222940E077
:1042500050E0BA0183E190E00E94222982E090E0E0
:104260000E94F2288093460484E090E00E94FA289D
:104270009093FD048093FC040E94521EEFEFF6E73A
:1042800021E0E150F0402040E1F700C000000E9432
:10429000521E80913C0480FF1AC06FEF7FEF80E0D8
:1042A00090E00E942E290E94080B60E0812F0E945E
:1042B0009C09082F61E0812F0E949C09E12FF0E00A
:1042C000E45AFB4F880F802B80831F5F1BCF83E056
:1042D00090E00E94F22890E00E947105809197047E
:1042E0008111C6C090E080E8909338048093370431
:1042F0000E9485256BE070E088EF97E00E94570FE1
:10430000811509F43FC08091380465E070E081FDBB
:10431000B2C083EF97E00E94570F811599F16DE0CD
:1043200070E081EE97E00E94570F811559F10E94CD
:10433000E20ADC01CB01805A9541AF4FBF4F809319
:10434000330490933404A0933504B0933604E0E32F
:10435000F2E080E092E0DF019C011D9221503040AC
:10436000E1F7F0932F02E0932E028FEF9FEF9093EF
:104370002D0280932C0281E08093320480933104DB
:104380001092300480919704811102C00E9402278C
:104390008AE091E09093C0048093BF0492E0C92E1C
:1043A000D12CCE01019628E1A22EB12C36E4832E29
:1043B00034E0932E89879A8780913B04853049F4B5
:1043C00080913B04853009F459C00E948B120E94F1
:1043D000240A0E94521E07E414E08CE3E82E84E0D5
:1043E000F82ED701F80191918D9124E0E135F20783
:1043F00009F494C09817B9F320909704712CD70151
:104400006D907D01F80131908F01361441F1362411
:10441000512C44244394842D83218115C1F021140F
:10442000B1F059827A820E949D109C838B83F1E0C7
:10443000FD8391E0842D8621811101C090E09E834F
:1044400049815A816B817C818D810E94AA1D539480
:10445000440C26E05212DFCFF8013197608273944A
:104460003AE07312CCCF0E94EE0A772473945BC0BB
:1044700093E080E239CF8EEE97E04DCF80913B0400
:10448000843021F10E94640F1092390430E40FB699
:10449000F894A895A09260000FBE3093600083B797
:1044A000817F846083BF83B7816083BF7894889560
:1044B00083B78E7F83BF0FB6F894A8958091600074
:1044C000886180936000109260000FBE80913A0472
:1044D000811509F475CF0E94521EECE3F4E081913E
:1044E000811104C08E169F06D1F76ACF80E189BD85
:1044F00082E189BD09B400FEFDCF8091D8008F7D97
:104500008093D8008091E00082608093E0008091E9
:10451000E00081FDFCCF0E948B1252CF98136CCF2C
:104520000E942F1E712CF0909704F11419F00E9434
:104530005C12F82E80916804811551F01092680485
:1045400080915304809354048091510480935204C9
:10455000E12C39C061E08E2D0E949C09182F60E08B
:104560008E2D0E949C09110F812B0E2D10E0D80179
:10457000A45ABB4FEC919E2F9370891719F1EE0F3F
:10458000EE0FE82BEC9380915B048E0DEF70F0E062
:10459000E05AFE4F075A1B4F6080D8019C91690E6C
:1045A000B2E060E06B1624F4EFEF6E161CF461E0ED
:1045B0000E945809862D660C990BB6010E94B928F5
:1045C000D8018C93E39480915E04E81618F28091F0
:1045D0009704811519F00E945C12F82AF11439F041
:1045E0000E94EE0A0E9493150E94760F04C00E945A
:1045F00093157110F9CF86E0ECEEF4E0A985BA8549
:1046000001900D928A95E1F77090ED04F090EE0420
:104610001091EF04E090F0040091F1041092EE0488
:104620001092EF041092F0041092F104812F8F2960
:10463000811509F445C080916104909162040E9443
:1046400084159C018091EA04811509F4BFC02531CD
:104650003105B0F18F3F19F08F5F8093EA04F114B8
:1046600059F00E94DF0991E01F140CF09FEF899F21
:10467000802D11248093EE04111559F00E94DF095A
:1046800091E011160CF09FEF899F802D11248093EB
:10469000EF048091EE04811599F06090EF046114AD
:1046A00079F00E94D109811101C081E08093EE046C
:1046B000862D0E94D109811509F47FC08093EF04F3
:1046C000802F8E29811509F444C080915F04909158
:1046D00060040E9484159C018091E904811509F40D
:1046E00070C021353105A8F18F3F19F08F5F80939D
:1046F000E904E11459F00E94FF0991E01E140CF046
:104700009FEF899F802D11248093F004011559F0AB
:104710000E94FF0991E010160CF09FEF899F802DF9
:1047200011248093F1048091F004811591F0E090C0
:10473000F104E11471F00E94D109811101C081E0FE
:104740008093F0048E2D0E94D1098115C1F18093D0
:10475000F1048091ED04871119C08091EE04811558
:1047600011F08F1113C02091EF04211511F01213D5
:104770000DC09091F104911511F0091307C030910B
:10478000F004311103C0822B892B81110E94A910E2
:1047900086E0E985FA85ACEEB4E001900D928A9549
:1047A000E1F70E94240A90916304891709F404CE6A
:1047B000809363040E94E20AFFCD81E07FCF81E015
:1047C000C6CF2B30310508F091CFC3CF2B30310548
:1047D00008F042CF75CF78941F921FB61F92112414
:1047E0008F939F93AF93BF9380917B0490917C04B0
:1047F000A0917D04B0917E040196A11DB11D80930E
:104800007B0490937C04A0937D04B0937E04BF91BD
:10481000AF919F918F911F901FBE1F9018951F926F
:104820000F920FB60F9211242F933F934F935F93E4
:104830006F937F938F939F93AF93BF93EF93FF9368
:104840008091E10082FF09C08091E20082FF05C0F3
:104850008091E1008B7F8093E1008091DA0080FFFE
:1048600024C08091D80080FF20C08091DA008E7F24
:104870008093DA008091D90080FF9BC080E189BDE0
:1048800082E189BD09B400FEFDCF81E080933B0445
:104890008091E201811109C00E94C40B0E94130C97
:1048A0008091E20084608093E2008091E10080FFCB
:1048B00017C08091E20080FF13C08091E2008E7FDC
:1048C0008093E2008091E20080618093E200809119
:1048D000D80080628093D80019BC85E080933B04A7
:1048E0008091E10084FF29C08091E20084FF25C00F
:1048F00080E189BD82E189BD09B400FEFDCF8091D0
:10490000D8008F7D8093D8008091E1008F7E8093C6
:10491000E1008091E2008F7E8093E2008091E200CE
:1049200081608093E2008091E101811509F447C024
:1049300084E080933B0480913B048091E10083FFFD
:1049400027C08091E20083FF23C08091E100877F30
:104950008093E10082E080933B041092E10180911A
:10496000E1008E7F8093E1008091E2008E7F809352
:10497000E2008091E20080618093E20042E060E02A
:1049800080E00E94E30B8091F00088608093F0004B
:10499000FF91EF91BF91AF919F918F917F916F9117
:1049A0005F914F913F912F910F900FBE0F901F90ED
:1049B000189519BC10923B041092E20176CF8091B9
:1049C000E30087FF02C083E0B4CF81E0B2CF1F9243
:1049D0000F920FB60F921124FF920F931F932F93F4
:1049E0003F934F935F936F937F938F939F93AF9377
:1049F000BF93CF93DF93EF93FF9309EE10E0F8019D
:104A00008081C091EC00C795CC27C7958F70FC2E94
:104A1000F82A1082C0EFD0E08881877F888378945D
:104A20000E94D212F8011082888188608883CF2D7D
:104A3000CF70C083FF91EF91DF91CF91BF91AF9184
:104A40009F918F917F916F915F914F913F912F91A6
:104A50001F910F91FF900F900FBE0F901F90189510
:104A6000FF920F931F93CF93DF93182FEB011092B8
:104A7000BC0084EA8093BC000E949D10082FF92E90
:104A80008091BC0087FF28C08091B900887F883062
:104A900029F08091B900887F8031A1F51093BB0087
:104AA00084E88093BC000E949D10182F092F8091EC
:104AB000BC0087FF1FC02091B900287F80E090E0F4
:104AC000283199F081E090E0203411F480E090E00A
:104AD00091958195910909C0802F9F2D0E94841581
:104AE000C817D90768F68EEF9FEFCDB7DEB7E5E0C0
:104AF0000C949F28812F902F0E948415C817D907E6
:104B0000B0F6F1CF8FEF9FEFF0CF1092B9008CE0AD
:104B10008093B80008950F931F93CF93DF93EB0119
:104B20008093BB0084E88093BC000E949D10182FE6
:104B3000092F8091BC0087FF11C02091B900287F08
:104B400081E090E0283211F480E090E09195819529
:104B50009109DF91CF911F910F910895CF3FDC070D
:104B600041F3812F902F0E948415C817D90708F7A9
:104B70008EEF9FEFEECFA0E0B0E0E1ECF5E20C9419
:104B80007B28782E5B016A0189010E949D104C01EF
:104B90000431110560F10F3F100769F1C80164E1AC
:104BA00070E00E946228F62EE72E6F2D7E2D872D55
:104BB0000E943025EC0197FF09C00F3F1007A9F3B1
:104BC000C4010E9484150817190778F77501CA0CEB
:104BD000DB1CEC14FD0411F0D7FF10C084E98093B6
:104BE000BC00CE01CDB7DEB7EDE00C949728FF24D2
:104BF000F394E12CDACF85E0F82EFBCFB801F70172
:104C000081917F010E948B25EC01E3CFA0E0B0E011
:104C1000ECE0F6E20C947B28782E5B016A018901B6
:104C20000E949D104C010431110560F10F3F1007E7
:104C300069F1C80164E170E00E946228F62EE72E57
:104C40006F2D7E2D872D0E943025EC0197FF09C026
:104C50000F3F1007A9F3C4010E9484150817190714
:104C600078F77501CA0CDB1CEC14FD0411F0D7FFBA
:104C700010C084E98093BC00CE01CDB7DEB7EDE073
:104C80000C949728FF24F394E12CDACF85E0F82EDA
:104C9000FBCFF7018491B8010E948B25EC01FFEF57
:104CA000EF1AFF0AE1CFA0E0B0E0E9E5F6E20C94EC
:104CB0007A28682E962E5A01690178010E949D106B
:104CC000782E892E0431110530F10F3F100731F194
:104CD000C80164E170E00E946228162F072F612F3F
:104CE000702F862D0E943025EC0197FF19C0FFEF31
:104CF000EF16FF06A1F3872D982D0E948415E81664
:104D0000F90668F784E98093BC00CE01CDB7DEB721
:104D1000EEE00C94962811E000E0E1CF15E0FCCF26
:104D2000B701892D0E948B25EC018501CA0CDB1C83
:104D30000C151D0539F3D7FDE5CFB701F8018191B9
:104D40008F010E948B25EC01F3CF8EE14A9B02C0BC
:104D50008A95E1F74A9BFECF08955A9880E28A959A
:104D6000F1F75A9A0895FC013BE03A95F1F798E083
:104D700020E080E031E040E14A95F1F7880F4A9B5E
:104D800002C08160232742E04A95F1F7000040E12C
:104D90004A95F1F79A9579F790E19A95F1F799B1DB
:104DA00032E03A95F1F7000040E14A95F1F792FBC5
:104DB000992790F992272081920F90830895A1E07E
:104DC000B0E0E5EEF6E20C94822819828C017C01B9
:104DD000E60EF11C0E151F0541F481E09981911139
:104DE00080E02196E6E00C949E280E94A526CE0144
:104DF00001960E94B326F80181938F01EBCF529A5E
:104E00005A9A089552985A9AEA9AE9E6F0E080810F
:104E10008F7C808308956150770B91E001C0990FDA
:104E20006A95EAF7692F90E021E0611108C09115B9
:104E300099F05A9A80E28A95F1F75A980895362F98
:104E40003823311539F05A9A922730E23A95F1F722
:104E50006695EBCF5A98F9CF5A98ECCFFF920F9303
:104E60001F93CF93DF93EC018C01060F111DC01728
:104E7000D10729F4CDB7DEB7E5E00C949F28F9906F
:104E80000E94AD2668E08F2D0E940B27F0CF1F9265
:104E90000F920FB60F9211240F931F932F933F93EE
:104EA0004F935F936F937F938F939F93AF93BF9332
:104EB000EF93FF93CF93DF930F92CDB7DEB71982B5
:104EC0000E94A526CE0101960E94B326082F0695C2
:104ED00006950695982F92959570202F2570920F24
:104EE000292F237096959695920F98279770898110
:104EF000892B811509F05CC0083008F059C080E1A9
:104F00008A95F1F75A9A529A82E08A95F1F700C091
:104F10005A9888E0089F80011124D801AC5EBE4FEA
:104F20001696ED91FC9117973097A9F0609170015A
:104F30007091710114962D913C911597260F371F92
:104F400011968D919C911297680F791F13964C9131
:104F500013978C910995F801EC5EFE4F6381611502
:104F600051F0209170013091710184819581820FFF
:104F7000931F0E942E270E94AD2680E18A95F1F7AB
:104F80005A9852985A9A80E18A95F1F7F801EC5EA6
:104F9000FE4F6081611551F02091700130917101D7
:104FA00081819281820F931F0E94DF260E94A52695
:104FB0000F90DF91CF91FF91EF91BF91AF919F91B2
:104FC0008F917F916F915F914F913F912F911F91A1
:104FD0000F910F900FBE0F901F9018950F931F9376
:104FE000CF93DF938C0108970CF064C0F894529A29
:104FF0005A9885E08A95F1F70000C02FC695C570D4
:10500000802F8570C80F8C2F8370C695C69593E04E
:10501000000F111F9A95E1F7C80FC8018C2BEC0106
:105020000E94AD2600C068E08C2F0E940B2790E103
:105030009A95F1F752985A9A4A9B35C087E090E0CA
:105040004A9933C0F801EC5EFE4F6381611561F04F
:10505000209170013091710184819581820F931F9D
:105060000E94DF26811519F10E94A52680E28A950B
:10507000F1F75A98529A90E19A95F1F7F801EC5E9F
:10508000FE4F6081611551F02091700130917101E6
:1050900081819281820F931F0E942E270E94AD264C
:1050A000789481E008C000C0C7CF019749F4529AB4
:1050B0005A9A789480E0DF91CF911F910F910895D3
:1050C00000C0BECFAA1BBB1B51E107C0AA1FBB1F5C
:1050D000A617B70710F0A61BB70B881F991F5A9584
:1050E000A9F780959095BC01CD0108952F923F922C
:1050F0004F925F926F927F928F929F92AF92BF92E8
:10510000CF92DF92EF92FF920F931F93CF93DF9393
:10511000CDB7DEB7CA1BDB0B0FB6F894DEBF0FBEF0
:10512000CDBF09942A88398848885F846E847D843D
:105130008C849B84AA84B984C884DF80EE80FD803F
:105140000C811B81AA81B981CE0FD11D0FB6F894B5
:10515000DEBF0FBECDBFED010895991B79E004C0FD
:10516000991F961708F0961B881F7A95C9F78095A6
:10517000089597FB072E16F4009407D077FD09D009
:105180000E94622807FC05D03EF4909581959F4FC0
:105190000895709561957F4F0895EE0FFF1F05905C
:1051A000F491E02D0994FB01DC0102C005900D9201
:1051B00041505040D8F70895FB01DC0104C08D91A7
:1051C0000190801921F441505040C8F7881B990B79
:1051D0000895FB01DC0102C001900D924150504046
:1051E000D8F70895F999FECF92BD81BDF89A992715
:1051F00080B50895A8E1B0E042E050E00C94362973
:10520000DC01A40FB51F4150504048F0CB01840F82
:10521000951F2E910E94112941505040D0F70895BA
:10522000262FF999FECF92BD81BDF89A019700B45F
:10523000021639F01FBA20BD0FB6F894FA9AF99AFF
:105240000FBE08950396272F0E9411290E9410294E
:10525000252F0E941129242F0C9411290196272F04
:105260000E9411290C941029DC01CB01FC01F99951
:10527000FECF06C0F2BDE1BDF89A319600B40D92A2
:1052800041505040B8F70895F894FFCFF010F8104F
:10529000FB10011116111611161116111611161107
:1052A00016111611041109110D11131124112A11CF
:1052B0002E11AF13D613DC13D613DC132F14511495
:1052C000DC134F155C155B185F18511857186318DD
:1052D00067186B18B2181C19BA1884188818BE18E9
:1052E0008C18C218CE18981815199C18D218A01826
:1052F000D618FD18A418DA180419AA18E018E81826
:105300009018C6189418CA18AE18E418F4180D1995
:1053100013197E18B6182319011A011A381A381AE7
:10532000D41AF11A621A621AF61A821B931B931B83
:105330000021007F220003F4F501190BC70CDE0CDD
:10534000E50CEC0C0000000100000000000000056E
:105350000100000005060000000000000000000140
:105360000B000000000000080C000000000000001E
:10537000000054090414000000000000010008109F
:1053800018181008006697C63435F6F731333236F0
:1053900000FF0100010000FFFF0000010001FF000D
:1053A0007F04E200E900EA00B500B600B700CD00D6
:1053B0008301CC008A01920194012102230224027C
:1053C0002502260227022A02B300B4006F007000F3
:0853D0009F01CB019F02A00226
:00000001FF
