:100000000C94B6040C94D3040C94D3040C943B26A7
:100010000C94D3040C94D3040C94D3040C94D30404
:100020000C94D3040C94D3040C9401230C94D92382
:100030000C94EC0F0C94D3040C94D3040C94D304C0
:100040000C94D3040C94D3040C94D3040C94D304D4
:100050000C94D3040C94DD220C94D3040C94D3049C
:100060000C94D3040C94D3040C94D3040C94D304B4
:100070000C94D3040C94D3040C94D3040C94D304A4
:100080000C94D3040C94D3040C94D3040C94D30494
:100090000C94D3040C94D3040C94D3040C94D30484
:1000A0000C94D3040C94D3040C94D30400AF00AE8E
:1000B00005010902A10185020901A1000509190133
:1000C00029081500250195087501810205010930EF
:1000D00009311581257F950275088106093815813A
:1000E000257F950175088106050C0A3802158125C2
:1000F0007F950175088106C0C005010980A10185B1
:100100000319012AB700150126B700950175108162
:1001100000C0050C0901A101850419012AA00215DE
:100120000126A002950175108100C005010906A1F4
:10013000018506050719E029E715002501950875D1
:100140000181020507190029EF1500250195F075B9
:10015000018102050819012905950575019102958E
:100160000175039101C005010906A101050719E008
:1001700029E715002501950875018102950175088B
:1001800081010507190029FF150026FF0095067556
:100190000881000508190129051500250195057537
:1001A000019102950175039101C009023B00020112
:1001B00000A0FA0904000001030101000921110156
:1001C0000001224400070581030800010904010021
:1001D000010300000009211101000122B6000705FA
:1001E0008203200001120100020000000832FC8797
:1001F000020100010200010C0353006F0066006C55
:1002000000650000001A034A006F00730065006675
:10021000004100640061006D00630069006B000034
:100220000004030904808182838485868788898A03
:100230008B8C8D8E8F9091929394A0A1A2A3A4A554
:10024000A6A7A8A9AAABACADAEAFB0B1B2B3B4C0CB
:10025000C1C2C3C4C5C6C7C8C9CACBCCCDCECFD016
:10026000D1D2D3D4004350534C4B000A0A00556EF0
:10027000646566004C6F7765720052616973650052
:10028000426173650A004C41594552000A0A004D0B
:100290006F640A00436C6D6B0051777274000A0A38
:1002A0000007087F0807003E5B4F5B3E003E6B4F38
:1002B0006B3E001C3E7C3E1C00183C7E3C18001C23
:1002C000577D571C001C5E7F5E1C0000183C180008
:1002D00000FFE7C3E7FF00001824180000FFE7DB7A
:1002E000E7FF0030483A060E00262979292600400B
:1002F0007F05050700407F05253F005A3CE73C5A33
:10030000007F3E1C1C0800081C1C3E7F0014227F3E
:100310002214005F5F005F5F0006097F017F00001D
:100320006689956A0060606060600094A2FFA29494
:100330000008047E04080010207E20100008082A0F
:100340001C0800081C2A0808001E10101010000CC1
:100350001E0C1E0C0030383E383000060E3E0E06D5
:100360000000000000000000005F00000000070027
:10037000070000147F147F1400242A7F2A12002310
:100380001308646200364956205000000807030035
:1003900000001C224100000041221C00002A1C7F9A
:1003A0001C2A0008083E0808000080703000000881
:1003B000080808080000006060000020100804021F
:1003C000003E5149453E0000427F400000724949CD
:1003D0004946002141494D33001814127F1000276F
:1003E00045454539003C4A49493100412111090739
:1003F00000364949493600464949291E0000001483
:1004000000000000403400000000081422410014E5
:1004100014141414000041221408000201590906A2
:10042000003E415D594E007C1211127C007F49490B
:100430004936003E41414122007F4141413E007F1B
:1004400049494941007F09090901003E4141517371
:10045000007F0808087F0000417F410000204041E4
:100460003F01007F08142241007F40404040007F50
:10047000021C027F007F0408107F003E4141413E84
:10048000007F09090906003E4151215E007F0919DC
:1004900029460026494949320003017F0103003FF4
:1004A0004040403F001F2040201F003F4038403F59
:1004B00000631408146300030478040300615949BD
:1004C0004D4300007F41414100020408102000001C
:1004D0004141417F0004020102040040404040408D
:1004E000000003070800002054547840007F28448F
:1004F000443800384444442800384444287F0038B5
:10050000545454180000087E09020018A4A49C78D2
:10051000007F080404780000447D40000020404033
:100520003D00007F102844000000417F4000007C17
:1005300004780478007C0804047800384444443883
:1005400000FC182424180018242418FC007C08043B
:1005500004080048545454240004043F4424003C3C
:100560004040207C001C2040201C003C4030403C8F
:10057000004428102844004C9090907C004464541F
:100580004C440000083641000000007700000000E5
:1005900041360800000201020402003C2623263CEA
:1005A00000000000000000404040F0F8F8FF38FF75
:1005B000F8F83FF8F8FF38FFF8F8F0404040000046
:1005C0000000000080C0C0C0800000C0C0800000EB
:1005D0000080C0C000C0C0000080C0C0000000009B
:1005E00000C0C0C0C0C000C0C000000000000000CB
:1005F00000000000000000000000000000000000FB
:1006000000000000000000000000000000000000EA
:1006100000000000000000000000000000000000DA
:10062000C0F0F8FC3E1E06010000007F4141417F02
:10063000007F4141417F000080C0E07E5B4F5BFE58
:10064000C00000C000DCD7DEDEDED7DC00C000006A
:10065000000000000000000000000000000000009A
:1006600000000000000000494949FFFFFFFFE0DFF4
:10067000BFBF00BFBFDFE0FFFFFFFF4949490000E8
:100680000000001F3F6060E0BF1F007F7F071E3833
:100690001E077F7F007F7F0E1F3B71600000000000
:1006A000007F7F0C0C0C007E7E007F7E0303007FAA
:1006B0007E03037E7E03037F7E000F3E703C063C7C
:1006C000703E0F00327B49493F7E007F7E0303006E
:1006D0001E3F69696F260000000000000000000056
:1006E000030F1F3F3C7870600000007F4141417F55
:1006F000007F4141417F00307B7F7830202030787F
:100700007F3B0003000F7F0F0F0F7F0F00030000E0
:1007100000000000000000000000000000000000D9
:1007200000000000000000010101070F0F7F0F7F94
:100730000F0F7E0F0F7F0F7F0F0F070101010000CA
:1007400000000000000000000101000000000000A7
:100750000000000000000000000000000000000099
:100760000000000000000000000000000000000089
:100770000000000000000000000000000000000079
:100780000000000000000000000000000000000069
:100790000000000000000000000000000000000059
:1007A0000000000000000000000000000000000049
:1007B0000000000000000000000000000000000039
:1007C0000000000000000000000000000000000029
:1007D0000000000000000000000000000000000019
:1007E0000000DA0281FFD9F1DB20A4A62EAF00A021
:1007F000C0D30000A1C8D30000AED580A81F408D93
:1008000014200029001E001F002000210022004C9F
:100810000014001A00080015001700E1000400167B
:1008200000070009000A00E0001D001B0006001977
:10083000000500E200E30021522C002A00A8002E4F
:1008400000270026002500240023002D001300129D
:10085000000C0018001C00340033000F000E000DC7
:10086000000B003100380037003600100011003254
:1008700000E300225228002B00000035003A003B24
:10088000003C003D003E000100220224022F023005
:10089000022E00010021023102260227022E02014F
:1008A000001F0235002F0030002D00010001000163
:1008B00000010001000100440043004200410040EB
:1008C000003F0045005500610060005F00320034C9
:1008D0000057005E005D005C002302010056005BD3
:1008E000005A0059003800630062006200010001F4
:1008F00000010001000100010001000100010001F0
:1009000000010001000100010001000100010001DF
:100910000001000100010001001D081B0806081964
:1009200008010001000100010001004C000100016C
:10093000000100010001000100010001004600016A
:1009400000010001000100010001004F00520051B0
:100950000050000100010001000100010001000140
:1009600000010001000100010001000011241FBE70
:10097000CFEFDAE0DEBFCDBF11E0A0E0B1E0E8E10B
:10098000F1E502C005900D92A83AB107D9F725E02C
:10099000A8EAB1E001C01D92A034B207E1F70E94BD
:1009A000D11E0C9438280C940000292F30E048E028
:1009B000911102C09C0140E0C90164E096958795C1
:1009C0006A95E1F7009711F04C5F9C01C90196957B
:1009D000879596958795009711F04E5F9C01C90108
:1009E00096958795840F08959093F8048093F70463
:1009F00008959093FA048093F904089521E030E07B
:100A000002C0220F331F8A95E2F78091F90490917A
:100A1000FA04822B932B0E94F904089521E030E020
:100A200002C0220F331F8A95E2F7209530958091FE
:100A3000F9049091FA04822393230E94F904089503
:100A40009A3090F5863080F5E82FF0E086E0989FA8
:100A5000E00DF11D11248E2F877041E001C0440F7D
:100A60008A95EAF783E0F695E7958A95E1F7EE0F28
:100A7000FF1FEE0FFF1FE753FB4F20E030E070E059
:100A80005191DF01CB01022E02C0969587950A9401
:100A9000E2F7817081958527842385278E932F5FC8
:100AA0003F4F2430310561F708959A3078F586304C
:100AB00068F5E82FF0E086E0989FE00DF11D112425
:100AC0009E2F977083E0F695E7958A95E1F7EE0FF4
:100AD000FF1FEE0FFF1FE753FB4F40E050E080E0A9
:100AE000219130E0092E02C0369527950A94E2F74D
:100AF00021703327042E01C0220F0A94EAF7822BBB
:100B00004F5F5F4F4430510559F7089580E00895D5
:100B1000E091F904F091FA0421E030E0D90102C03B
:100B2000AA0FBB1F8A95E2F7CD01D90102C0AA0F17
:100B3000BB1F6A95E2F7BD018A2B972B02C0220FDB
:100B4000331F4A95E2F7AF014823592384179507CD
:100B500031F4CF01822B932B0E94F9040895209544
:100B60003095C9018E239F23F7CF80910005909186
:100B7000FF04981301C008958F5F8770FACF90919A
:100B8000FB04809589238093FB04282F2770211173
:100B90000DC0891759F09091FD0492FF07C086950A
:100BA000869586950E940E051092FB04089580910B
:100BB000F4049091FE04892B5091F504511591F0A5
:100BC00090914C01911521F09091FC0497FD0BC080
:100BD00096E02CEA31E040E0915048F44111109247
:100BE000F504852B08959EE124EB31E0F4CFF90163
:100BF00061919F01611581F34F5FEECF982F909522
:100C00008091F40489238093F40408957A30B8F431
:100C10006630A8F48330B0F4E62FF0E096E0799FD8
:100C2000E00DF11D11249CE3899FE00DF11D1124BD
:100C3000EE0FFF1FED5FF74F85919591089580E0CE
:100C400090E0089581E0FCCF9C01803E910509F47D
:100C500048C0D8F48133910509F47DC048F4893245
:100C6000910509F46DC08A9709F47CC0C901089503
:100C70008933910551F18238910539F1C597B1F762
:100C80008091FC0485FFF2CF29C0843E910509F4D0
:100C900047C048F4823E910599F1833E9105A9F140
:100CA00021EE30E0E3CF863E910509F444C0873E53
:100CB0009105E1F68091FC0483FD61C09091FD04F3
:100CC00091FF2BC024EE30E0D1CF8091FC048370E3
:100CD000811152C08091FD0483FFC8CF29E230E02A
:100CE000C5CF8091FC0480FD33C09091FD0490FF3E
:100CF000BDCF23EE30E084FFB9CF20E030E0B6CFA7
:100D00008091FC0482FDF5CFB1CF8091FC0482FD7F
:100D100030C09091FD0490FD2FC084FFA7CFEDCF90
:100D20008091FD0481FFA2CF8091FC0427EE30E08A
:100D300084FDE3CF9BCF8091FC0483FDF7CF96CF5A
:100D40008091FC0485FD1EC08091FD0483FF8ECF41
:100D500029E330E08BCF8091FC0486FF87CF2AE225
:100D600030E084CF8091FC0486FF80CF21E330E027
:100D70007DCF22EE30E07ACF20EE30E077CF26EE46
:100D800030E074CF25E330E071CF9091FC0492FF06
:100D900010C041E0282F2471243009F040E031E0F8
:100DA000282F2871283009F030E0431711F02CE08B
:100DB000822793FF10C041E0282F2471243109F0CD
:100DC00040E031E0282F2871283109F030E0431746
:100DD00011F02CE082273091FD0430FF10C051E06B
:100DE000282F2171213009F050E041E0282F28718F
:100DF000283009F040E0541711F029E0822731FF34
:100E000010C041E0282F2171213109F040E031E08C
:100E1000282F2871283109F030E0431711F029E01C
:100E2000822794FD877E08951F93CF93DF930E94BE
:100E30002406EC01811522E5920708F055C08115C2
:100E400040E5940708F0D1C0803E910520F58D3C27
:100E5000910508F0A4C0883A910570F4853A91058F
:100E600008F09AC081309105D1F10497813A91053B
:100E7000B0F1C0E0D0E033C0885A91094B97C8F771
:100E8000C85AD0E0CC0FDD1FCE58DE4F0990D88174
:100E9000C02DD46424C0811550E49507C0F4C11559
:100EA00080E2D80708F0B7C0C83ED105C0F0CE0137
:100EB0009A9581159F41E8F68D2F0E94C506182F3F
:100EC000CE0199270E942406EC01D12B08C0992756
:100ED0000E942406CC27DF70C82BD92BD06ACE0104
:100EE000DF91CF911F910895803842E59407C8F5AE
:100EF000803652E5950708F05BC0C03482E5D8071C
:100F0000D0F4C03292E5D90708F04BC08C2F8695FB
:100F1000869520E2829FC0011124C37021E030E059
:100F2000A90102C0440F551FCA95E2F7EA01C82B78
:100F3000D92BDD68D4CF8C2F86958695877050E2AB
:100F4000859FC0011124C37021E030E0A90102C0D7
:100F5000440F551FCA95E2F7EA01C82BD92BDC686C
:100F6000BECF803C52E5950758F48F71C03AD24508
:100F7000A0F590E0982F8827EC01C46FD06AAFCF1E
:100F8000805C9245809708F074CFDC2FCC27CC276B
:100F9000DF71C06FD06AA3CFA497D064A0CFD06513
:100FA0009ECFCF71D0E0DC2FCC27C16FD06A97CF16
:100FB00086958695877020E2829FC0011124C370B8
:100FC00021E030E0A90102C0440F551FCA95E2F7A5
:100FD000EA01C82BD92BDA6882CF0E94C506C82F38
:100FE000D0E0DC2FCC27D0627ACF8F710E94C5066B
:100FF00093E0CC0FDD1F9A95E1F7CC27DF70282F07
:1010000030E084FF04C050E1859F90011124C22B81
:10101000D32BD06964CF8D2F8F710E94C506182FF6
:10102000CE0199270E942406EC01D12BDCCFA0E051
:10103000B0E0EDE1F8E00C9473278C01E090F90446
:10104000F090FA048091F7049091F804E82AF92AC4
:10105000CFE0D0E0CC24C394D12CC6010C2E02C02A
:10106000880F991F0A94E2F78E219F21892B49F45A
:10107000219798F7B12C8B2DCDB7DEB7E9E00C9412
:101080008F27BC2EB8018C2F0E9406060E941407E1
:10109000019771F3F0CF0F931F93CF93FC018581DC
:1010A00000811181811591F0611581F0C8010E94C4
:1010B0001708C82F682FC8010E942005B8018C2F7F
:1010C0000E940606CF911F910F910895C8010E94BA
:1010D0005505C82FF3CFCF93DF93D82FC92F0E9488
:1010E00017086D2F7C2F0E9406060E941407DF91BF
:1010F000CF910895FC0184818115A1F080819181B7
:101100000E946B08282F92959F70963099F060F49A
:10111000925F9F70923030F4203FB1F038F481E05C
:10112000283E38F080E008959A5FF3CF81E0243FB5
:10113000C9F7089591E0213F09F090E081E0283E51
:1011400008F080E0892B089581E0089580E00895FB
:10115000F894E82FE295EF70F0E041A18F7021E064
:1011600030E0B90102C0660F771F8A95E2F7CB0124
:10117000962F9095942391A392A1892B82A3789482
:10118000089581E080936804089590915304292F75
:1011900030E070915404A9014F5F5F4F43705527B1
:1011A0007417150689F02F5A3B4F60FB87F9F90138
:1011B00084839F5F937090935304809151048F5F59
:1011C0008093510481E0089580E0089590E06115D6
:1011D000E9F0895F9E4FFC0180818F3FB1F0E82FDD
:1011E000E295EF70F0E041A18F7021E030E0B901AD
:1011F00002C0660F771F8A95E2F7CB01962F909574
:10120000942391A392A1892B82A30895885F9E4F76
:10121000E2CF90E06115A9F0895F9E4FFC0120812B
:101220002F3F91F0E22FE295EF70E05EF0E08081D9
:1012300090E02F7002C0959587952A95E2F781700E
:101240000895885F9E4FEACF80E00895FC01680F03
:10125000791F8FEF41E39191892728E030E0982FA3
:10126000990F87FF09C0892F842721503040B9F793
:10127000E617F70781F70895892FF7CF282F35EB69
:101280002303C001112497FF04C080589109892FBE
:10129000089580589F4FFBCF8091EB0480FD14C0D0
:1012A00081FD14C082FD16C08091EA04811581F091
:1012B0008E3180F420E5829FC00111246EE170E040
:1012C0000E94AD27862F089584E1089588E208954D
:1012D00088E0089580E508958091EB0480FD17C0B3
:1012E00081FD17C082FD19C08091E904811599F034
:1012F000883298F428E0829FC001112468E270E0EF
:101300000E94AD276115710551F0862F089562E0A6
:10131000FCCF64E0FACF61E0F8CF68E0F6CF81E07F
:10132000089580919704811559F0E091BF04F091E0
:10133000C004309729F00190F081E02D09950895BF
:1013400080E00895A3E0B0E0E8EAF9E00C947A27A1
:101350009C018091F6019091F70182179307A1F00B
:101360003093F7012093F601E091BF04F091C0049F
:10137000309751F083E089833B832A830084F18591
:10138000E02DCE01019609952396E2E00C94962774
:10139000A3E0B0E0EEECF9E00C947A279C01809198
:1013A000F4019091F50182179307A1F03093F501B4
:1013B0002093F401E091BF04F091C004309751F004
:1013C00084E089833B832A830084F185E02DCE016C
:1013D000019609952396E2E00C94962790914C0192
:1013E000911112C0ACEAB1E0EFEF90E02D918217BD
:1013F00051F0EF3F19F4211101C0E92F9F5F9630A2
:10140000A9F7EF3FC9F408959091FC0497FFEACF44
:10141000E82FE695E695E695803FA8F7F0E0EE54D4
:10142000FE4F877021E030E001C0220F8A95EAF775
:101430008281822B828308950E2E000CFF0BE655CD
:10144000FE4FF8CF90914C01911521F09091FC0442
:1014500097FD0CC0ECEAF1E09191891302C0DF0125
:101460001E9251E0E23BF507B9F70895E82FE695A3
:10147000E695E695803FC8F7F0E0EE54FE4F8770A2
:1014800021E030E0A90102C0440F551F8A95E2F720
:10149000CA01809592818923828308952FB7F89499
:1014A00060917B0470917C0480917D0490917E0416
:1014B0002FBF0895CF92DF92EF92FF928091970411
:1014C000811559F00E944E0A6B017C01C701B601DB
:1014D000FF90EF90DF90CF9008950E944E0AC09049
:1014E0009904D0909A04E0909B04F0909C04C60E5E
:1014F000D71EE81EF91EEACF87E797E79093010809
:101500008093000888E19AE00FB6F894A89580933C
:1015100060000FBE90936000FFCF8091F3010895AB
:10152000FC019B018091E9019091EA0186179707E0
:1015300040F0672B29F48091E8008E778093E800D3
:10154000C90140E0009741F4411106C08091E800D4
:1015500082FF2FC080E0089520913B042115A9F15E
:101560002530A9F12091E80023FD2DC02091E8004D
:1015700022FDECCF2091E80020FFE4CF3091F30072
:101580002091F200009719F02830310558F041E021
:101590002830310509F040E02091E8002E772093B3
:1015A000E800D0CF41914093F10001972F5F3F4F6A
:1015B000E9CF80913B04811541F0853041F0809165
:1015C000E80083FFC3CF81E0089582E0089583E0BF
:1015D00008958091E30187FF13C08091E80082FFA6
:1015E00006C08091E8008B778093E8000895809191
:1015F0003B048111F2CF089580913B048115D9F30A
:101600008091E80080FFF8CF8091E8008E77ECCFE2
:101610002091E4003091E50095E6A9012091EC00CD
:10162000822F817020FF06C08091E80080FF06C0F5
:1016300080E008952091E80022FD1AC080913B04CB
:10164000811589F0853089F08091EB0085FD0FC010
:101650002091E4003091E50042175307F9F29A9582
:10166000E1F684E0089582E0089583E0089581E042
:101670000895E8EDF0E080818E7F80831092E20093
:101680001092DA001092E100A0EEB0E08C9181603F
:101690008C9380818F77808319BCA7EDB0E08C910B
:1016A0008E7F8C9380818F7E80831092E2010895DB
:1016B000982F9093E900891771F07091EC002091B8
:1016C000ED005091F00021FD09C09F5F973089F730
:1016D0008093E9000895762F242F50E03091EB009D
:1016E0003E7F3093EB003091ED003D7F3093ED0075
:1016F0003091EB0031603093EB007093EC0020935D
:10170000ED005093F0002091EE0027FDDECF08950C
:10171000A0E0B0E0EEE8FBE00C947427C8EDD0E068
:1017200088818F7E8883E7EDF0E08081816080830F
:1017300084E082BF81E08093E20188818E7F88838C
:1017400002EE10E0F80110821092DA0081EEC82E4D
:10175000D12CF601108288818F77888388818068F8
:10176000888388818F7D888319BC10923B041092F6
:10177000E10110923A041092E00190EEE92EF12C72
:10178000F70180818B7F808388818160888342E03C
:1017900060E080E00E94580BF60180818E7F80839C
:1017A000F801808181608083808188608083F70177
:1017B00080818E7F8083888180618883CDB7DEB70A
:1017C000E8E00C949027E09100059091FF0427E059
:1017D000E91302C080E00895AE2FB0E02E9FF00123
:1017E0001124EF5FFA4F3181361306C03081381370
:1017F00003C03581341304C0FD013196E770E8CF92
:1018000081E008950F931F93CF93DF938B01EA013B
:1018100090913B04943059F58093E9008FEF9091BB
:10182000E80095FD06C095ED9A95F1F700008A95C0
:10183000B1F78091E80085FF1AC00E94080B811162
:1018400011C08091E80085FD06C08091E8008E7788
:101850008093E800F2CFF80181918F018093F1002D
:10186000219779F78091E8008E778093E800DF91E7
:10187000CF911F910F910895CF93DF93D82FC92F48
:1018800048E050E0682F792F81E00E94020C88E048
:10189000ED2FFC2FABEEB1E001900D928A95E1F7B0
:1018A000DF91CF910895BC0140E250E082E00E94B8
:1018B000020C0895BC0146E050E082E00E94020C58
:1018C0000895BC0143E050E082E00E94020C0895BC
:1018D000A0E0B0E0EEE6FCE00C947227182F092F90
:1018E000B62EA72E7A018091DC019AE0C92ED12C68
:1018F0008A3018F0CC24C394D12CC1E0D0E06B2DF9
:101900007A2D812F902FF7010995811116C021960C
:10191000CC16DD0694F0CC9FC001CD9F900D900DAC
:10192000112420E030E045E34A95F1F700002F5FF5
:101930003F4F28173907B9F7E2CFCDB7DEB7EAE056
:101940000C948E279091FD0492FB222720F92817F2
:1019500079F080FB92F99093FD046091FC04709102
:10196000FD0484E090E00E94222882E00E94BF05EE
:10197000089580914C01811559F18091FC0487FFF5
:1019800027C00E94D7058093B30140E250E06FE981
:1019900074E082EB91E00E94D027892BC1F080E2B5
:1019A000E2EBF1E0AFE9B4E001900D928A95E1F746
:1019B000E091BF04F091C004309749F086E0809335
:1019C000B2010480F581E02D82EB91E00995089544
:1019D0000E94D7058093AA0148E050E061EC74E0D2
:1019E0008AEA91E00E94D027892B89F388E0EAEA0D
:1019F000F1E0A1ECB4E001900D928A95E1F7E0915D
:101A0000BF04F091C004309711F30280F381E02D00
:101A10008AEA91E0DBCF811539F09091F404892BAB
:101A20008093F4040E94B90C0895811521F00E945E
:101A3000FE050E94B90C0895A1E0B0E0E2E2FDE0ED
:101A40000C946C27462E4A01522EC32E5701682E45
:101A5000880F7708C3010E94E226D82E811509F469
:101A600075C0C30133E0880F991F3A95E1F7FC0177
:101A7000EC5EFE4F2381422F50E0211511F041E032
:101A800050E08C5E9E4FFC016481758161587B4FF4
:101A9000CE0101960E94DD27F401408151816281CF
:101AA00073812FB7F89480917B0490917C04A0916E
:101AB0007D04B0917E042FBF841B950BA60BB70B42
:101AC00084369105A105B10538F4B501C8010E941D
:101AD000260999818917D1F1E42C042C000CFF0808
:101AE000C7010E94E226D82E811106C0D12C8D2D6F
:101AF0002196E0E10C948827C70123E0880F991F05
:101B00002A95E1F7FC01EC5EFE4F2381422F50E065
:101B1000A216B10408F4A5018C5E9E4FFC016481FD
:101B2000758161587B4F852D9C2D0E94DD27B50165
:101B3000C8010E94260999818913D8CF0E944E0AB4
:101B4000F4016083718382839383D1CFA501B801AF
:101B5000852D9C2D0E94DD27CACFA5E0B0E0E3EBE8
:101B6000FDE00C9474276B0185E0E82EF12C00E871
:101B700014E09E012F5F3F4F47E754E061E080E0B3
:101B80000E941C0D811549F095E0FE013196A2E7F7
:101B9000B4E001900D929A95E1F795E0E2E7F4E068
:101BA000D60101900D929A95E1F72596E8E00C9404
:101BB0009027A8E0B0E0EFEDFDE00C94762788E0F8
:101BC000E82EF12C0BE814E09E012F5F3F4F4AE610
:101BD00054E064E083E00E941C0D182F811589F108
:101BE00090918A0480916904981759F100E09091CE
:101BF0008E0480918D048917F1F0E92FF0E0ED5704
:101C0000FB4F848587FB662760F99F5F93709093F5
:101C10008E0490918C049F5F90938C048F770E9428
:101C2000C508082F8111E3CF85E090E00E94E226ED
:101C3000102F182302C00111F7CF80918A048093DE
:101C40006904812F2896E6E00C9492270F931F9346
:101C5000CF93DF93D82FC92F45E050E065E874E0BB
:101C60000E94D0278C0140916E0450916F046091C6
:101C70007004709171042FB7F89480917B04909157
:101C80007C04A0917D04B0917E042FBF841B950B32
:101C9000A60BB70B84369105A105B10510F4012BF5
:101CA00011F1809125019091260181589B4F20913F
:101CB0002401422F50E0263010F045E050E06D2F17
:101CC0007C2F0E94DD2782E090E00E94E2268115B1
:101CD00059F00E944E0A60936E0470936F048093D3
:101CE00070049093710481E0DF91CF911F910F9167
:101CF0000895A4E0B0E0EFE7FEE00C94792740916E
:101D000064045091650460916604709167042FB774
:101D1000F89480917B0490917C04A0917D04B09113
:101D20007E042FBF841B950BA60BB70B11E08436E6
:101D30009105A105B10578F10E945A0ADC01CB0199
:101D40000296A11DB11D89839A83AB83BC838091C8
:101D500045019091460181589B4F20914401422FAB
:101D600050E0253010F044E050E0BE016F5F7F4F3F
:101D70000E94DD2786E090E00E94E226182F811560
:101D800051F00E944E0A609364047093650480933E
:101D9000660490936704812F2496E3E00C949527C2
:101DA000AB0124E630E0BC0188E70E94FE249C01E0
:101DB00081E0232B09F080E00895809132048115A1
:101DC00069F080913104811549F062E070E08EEA9B
:101DD00090E00E94D00E81111092310408958091FC
:101DE00032048115F9F00E944E0ADC01CB01805AC1
:101DF0009541AF4FBF4F8093330490933404A09329
:101E00003504B09336048091310481110BC062E037
:101E100070E08CEA90E00E94D00E811519F081E00C
:101E20008093310408951F93CF93DF93982F162F3B
:101E300081E09A3019F09D3039F480E00E94A40FBF
:101E4000DF91CF911F910895C0912E02D0912F0262
:101E500086E0FE01AAE1B2E001900D928A95E1F7D9
:101E6000903E90F186E0FE0111928A95E9F7C091CB
:101E70002E02D0912F02111133C046E050E0BE0176
:101E80008AE192E00E94D0279E0120533240892BA4
:101E900091F52A5F3F4F40913704642F70E0C901EC
:101EA0000E945627481B463010F4240F311D21157F
:101EB00072E0370710F020E030E0205D3D4F3093B6
:101EC0002F0220932E02BCCFF6E09F9FB001112479
:101ED0006F557D4F46E050E0CE010E94C727C7CF27
:101EE0009E012A5F3F4FFE012E173F0731F280818E
:101EF00080958193F9CFC90145E0969587954A95DC
:101F0000E1F741E050E0BA0102C0660F771F8A9501
:101F1000E2F7CB0160912C0270912D02862B972B5A
:101F2000B9016B5F7F4FE5E076956795EA95E1F73C
:101F300002C0440F551F6A95E2F7842B952B9093AE
:101F40002D0280932C02A5CFCF93382FE0912E0243
:101F5000F0912F02E053F24020913704622F70E09D
:101F6000CF010E945627281B822F311569F066E0A9
:101F70000E94A127C82FC15010F4CF91089560E0AE
:101F800080E20E94130FF7CF8E0F9F2F911D8115B6
:101F900022E0920710F080E090E0805D9D4F9093EA
:101FA0002F0280932E02E9CF1F93CF93DF93EC0192
:101FB000162FFE018491811104C0DF91CF911F91F2
:101FC0000895612F0E94130F2196F3CF0E94D40F22
:101FD00081E00E94A40F08951F921FB61F92112442
:101FE0008F939F93AF93BF9380913904811113C056
:101FF00080917B0490917C04A0917D04B0917E043B
:102000004196A11DB11D80937B0490937C04A09305
:102010007D04B0937E04BF91AF919F918F911F90EB
:102020001FBE1F9018952FB7F89480917B04909154
:102030007C04A0917D04B0917E042FBF08950E947E
:1020400013102091EE043091EF04232B211521F081
:1020500080936104909362042091F0043091F10424
:10206000232B211521F080935F0490936004E0916D
:10207000BF04F091C004309749F082E08093EC04F3
:102080000680F781E02D8CEE94E00995089520916B
:10209000EE049091F1043091F004611509F458C0F8
:1020A0004091EF04242B292B232B211531F098E0AC
:1020B0009093EA0491E09093E904E3E3E80FE331BD
:1020C00050F4F0E0E65CF74D0C94C1270E944C09F7
:1020D00081958093EF040E941F1008950E944C097F
:1020E000F8CF0E944C0981958093EE04F4CF0E94B2
:1020F0004C09FACF0E946C098093F004ECCF0E9447
:102100006C098195F9CF0E946C0981958093F10447
:10211000E2CF0E946C09FACF815D990B21E030E09B
:1021200001C0220F8A95EAF78091ED04822B8093FB
:10213000ED04D1CF8091EB0481608093EB04CBCF91
:102140008091EB048260F9CF8091EB048460F5CF3D
:102150008D3C59F48091EF0487FF0DC01092EF047D
:10216000211559F41092EA0408C08E3C81F4809144
:10217000EF0418169CF3211581F08091F0049091E2
:10218000F104892B8111A7CF1092E904A4CF8F3CD1
:1021900041F427FFF0CF1092EE048091EF048115F7
:1021A000E0CF803D19F41216B4F3E5CF893D29F450
:1021B00013160CF71092F004DECF8A3D19F437FFA6
:1021C000DACFF8CF8B3D29F497FFD5CF1092F104E9
:1021D000D2CF8C3D19F41916CCF3CDCF9FE2980FD6
:1021E000983090F4815D990B41E050E0BA0102C053
:1021F000660F771F8A95E2F7CB0180959091ED04E9
:1022000089238093ED04B7CF8D3D31F48091EB04A9
:102210008E7F8093EB04AFCF8E3D21F48091EB0451
:102220008D7FF7CF8F3D09F0A6CF8091EB048B7F98
:10223000F0CFCF93C82F8115D9F08CEF8C0F813A56
:10224000A8F580914C01811521F08091FC0487FD57
:1022500011C0ECEAF1E082EB91E02191C21701F1AB
:102260008E179F07D1F78C2F0E94EE090E94B90CA0
:10227000CF910895EC2FE695E695E695F0E0EE54C3
:10228000FE4F828190E04C2F477021E030E002C089
:10229000220F331F4A95E2F782239323892B19F3E8
:1022A0008C2F0E94220A0E94B90CDDCF80E28C0F95
:1022B000883068F4C77081E090E001C0880FCA954B
:1022C000EAF7C091F404C82BC093F404CFCF8BE598
:1022D0008C0F833038F42C2F2452330BC9010E9409
:1022E000A209C6CFE8E5EC0FEB3150F4F0E0EE0FB9
:1022F000FF1FEE58FE4F808191810E94C809B8CF20
:1023000083E38C0F833108F0B3CF61E08C2F0E9400
:102310004710AECF811581F19CEF980F913A28F4C8
:102320000E94220A0E94B90C089590E2980F9830FA
:1023300050F4877091E001C0990F8A95EAF7892FD0
:102340000E94FE05EFCF9BE5980F933028F480E0C4
:1023500090E00E94A209089598E5980F9B3128F417
:1023600080E090E00E94C809089593E3980F9331AC
:1023700018F460E00E94471008950F931F93CF93C5
:10238000C82F8B010E9419118FE99FE00197F1F787
:1023900000C0000001501040B9F78C2F0E948A1134
:1023A000CF911F910F91089580E090915404209156
:1023B0005304291739F1E92FF0E0EB5AFB4F8081E4
:1023C00087FB222720F98F779F5F937090935404A7
:1023D000909152049F5F90935204811549F081308F
:1023E00079F46AE070E08EE4211108C08BE406C045
:1023F0006AE070E089EA211101C08AEA0E94BD11F9
:1024000081E0D3CF08951092F40480914C0181159E
:1024100039F18091FC0487FF23C0E4EBF1E08EE109
:10242000DF011D928A95E9F780E090E00E94A20901
:1024300080E090E00E94C8091092FE040E94B90C4E
:1024400086E0ECEEF4E0DF011D928A95E9F7109248
:10245000EA041092E9041092EB040E941F10089500
:10246000ECEAF1E086E0DCCF0E9403122FEF84E378
:102470009CE0215080409040E1F700C0000088E1DE
:102480009AE00FB6F894A895809360000FBE9093E1
:102490006000FFCFAAE2B0E0E0E5F2E10C9479271A
:1024A00083EE91E0FC0101962091F100208321E070
:1024B0008B3E9207B9F78091E401893009F456C048
:1024C000C8F4823009F4B2C0833009F481C081308D
:1024D00071F18091E80083FFE6C08091E301909163
:1024E000E4019A3008F0DFC0E92FF0E0E35BF74D3C
:1024F0000C94C1278A3009F488C08B3051F7809141
:10250000E301813231F78091E7019091E801892B55
:1025100001F78091E800877F8093E8000E94E90A34
:102520008091E50180934C010E940312D2CF8091EB
:10253000E301813A71F68091E800877F8093E8009B
:102540008091E7019091E801892B61F060E080E0E3
:1025500090E070E00E94900A8091E8008B77809371
:10256000E800B7CF68E08BEE91E0F3CF8091E30114
:10257000813209F0AECF8091E7019091E801029796
:1025800008F0A7CF8091E800877F8093E8008091D2
:10259000E80082FF18C09091F3008091F20002974A
:1025A00031F48091F100813011F0863021F4809176
:1025B000F1008093F3018091E8008B778093E8002D
:1025C0000E94E90A86CF80913B048111E0CF81CF40
:1025D0008091E301813A09F07CCF8091E7019091ED
:1025E000E801892B09F075CF8091E800877F8093FF
:1025F000E8008091E80080FFFCCF80914C0180933F
:10260000F1008091E8008E77D9CF8091E30181328B
:1026100009F05FCF8091E800877F8093E8000E94F7
:10262000E90A8091E6018093DF0153CF8091E301B5
:10263000813A09F04ECF8091E800877F8093E800CF
:102640008091E80080FFFCCF8091DF01D8CF8038F7
:1026500089F0823841F58091E7018F70873018F555
:102660008093E9008091EB0085FB882780F9109228
:10267000E90006C080913A04880F9091E001892B0F
:102680009091E800977F9093E8008093F10010927A
:10269000F1008091E8008E7723C0811116C08091EF
:1026A000E501813011F18091E80083FF0AC080913B
:1026B000E800877F8093E8008091EB008062809340
:1026C000EB00AA96E3E00C949527823061F78091A5
:1026D000E501811589F01092E9008091E800877F7B
:1026E0008093E8000E94E90ADECF81E0933009F090
:1026F00080E080933A04EFCF8091E7018F702FEF55
:10270000280F263080F68093E9002091EB0020FF0F
:10271000E2CF933031F48091EB0080628093EB0044
:10272000DACF9091EB0090619093EB0021E030E0E4
:10273000A90102C0440F551F8A95E2F74093EA00B1
:102740001092EA008091EB008860E8CF8111ABCF56
:102750001091E5011F778091E3008078812B8093B1
:10276000E3008091E800877F8093E8000E94E90AF7
:102770008091E80080FFFCCF8091E3008068809327
:10278000E30083E0111101C082E080933B048BCF12
:102790008058823008F087CF2091E5013091E60122
:1027A0002C3D53E0350799F583E08A838AE28983DB
:1027B0004FB7F894DE01139620E03EE051E2E32F9C
:1027C000F0E050935700849120FF03C082958F70F2
:1027D0003F5F8F708A30C8F0895C90E08D939D9345
:1027E0002F5F243161F74FBF8091E800877F80938E
:1027F000E8006AE270E0CE0101960E94900A8091A2
:10280000E8008B778093E8004ECF805DE6CF832F82
:1028100099278330910529F160F48130910509F4FD
:1028200076C0029709F03FCF8BE390E0EAEAF1E04F
:102830002DC02091E7013091E8018132910509F422
:102840005AC0829709F02FCF2115310509F469C0CC
:102850002130310509F027CF86EB90E0E0EBF0E086
:1028600015C0C90199272130B1F18230910509F4D1
:102870003AC0892B09F017CFE1E2F2E0E4918E2F04
:1028800090E0E1E2F2E0009709F40DCF2091E8003A
:10289000277F2093E8002091E9013091EA01821717
:1028A000930708F49C0140E02115310509F03EC072
:1028B00041113CC08091E80082FDA1CF80913B0492
:1028C000811509F49CCF853009F499CF8091E800F7
:1028D00083FFF0CF94CFE5E0F2E0E4918E2F90E01B
:1028E000E5E0F2E0D0CFE7EFF1E0E4918E2F90E069
:1028F000E7EFF1E0C8CF2115310571F02130310546
:1029000009F0D1CE89E090E0E5EDF1E0BFCF82E1C2
:1029100090E0E5EEF1E0BACF89E090E0ECEBF1E099
:10292000B5CF84E490E0E6E6F1E0B0CF80913B04DF
:10293000811509F464CF853009F461CF8091E800F6
:1029400083FD5DCF8091E80082FDB4CF8091E800E7
:1029500080FFAACF9091F3008091F20021153105FC
:1029600019F08830910550F041E0089709F040E0F7
:102970008091E8008E778093E80096CF4491409351
:10298000F1003196215031090196E8CF803809F0E5
:102990008ACE8091E800877F8093E8008091E101F2
:1029A0008093F10076CE81117ECE1091E501123038
:1029B00008F079CE8091E800877F8093E80010933B
:1029C000E1010E94E90A111581F084E080933B0443
:1029D00042E061EC81E00E94580B42E261EC82E04F
:1029E0000E94580B80913B045ECE8091E30087FDEE
:1029F000ECCF81E0EBCF9C014FB7F89480917B0442
:102A000090917C04A0917D04B0917E044FBF821B05
:102A1000930B08952F923F925F926F927F928F92C5
:102A20009F92AF92BF92CF92DF92EF92FF920F935D
:102A30001F93CF93DF9380913204811509F487C0EF
:102A400080911802909119020E94FB14C29708F419
:102A50005FC00E941310909319028093180280E3C4
:102A600092E090932F0280932E028091970460E071
:102A7000811509F486C08EE992E00E94D40F8091FE
:102A8000F9049091FA040E94D504811541F0813037
:102A900041F160E08FE892E00E94D40F05C060E051
:102AA00089E992E00E94E60F60E08CE892E00E94E3
:102AB000D40F60E086E892E00E94E60F8091F9046E
:102AC0009091FA040E94D504823009F452C068F053
:102AD000833009F452C060E08EE692E00E94E60F77
:102AE00009C060E084E992E0DDCF60E080E892E038
:102AF0000E94D40F60E08BE692E00E94D40F0E9407
:102B0000910981FB662760F985E692E00E94E60F55
:102B100080912C0290912D02892BC1F58091310476
:102B20008115A9F00E944E0A0091330410913404DB
:102B30002091350430913604601B710B820B930B8E
:102B40006F3F7F4F8F4F9F4710F40E94DD0EDF9144
:102B5000CF911F910F91FF90EF90DF90CF90BF909A
:102B6000AF909F908F907F906F905F903F902F904D
:102B7000089560E08AE792E0BBCF60E084E792E0EE
:102B8000B7CF85E292E00E94D40FC2CF8091320489
:102B9000811521F2809130048111C0CF0E94EF0E87
:102BA00020912C0230912D022115310509F4B6CF68
:102BB00010E041E050E0812F90E01A01012E02C0A8
:102BC000220C331C0A94E2F7B10162237323672BB2
:102BD00011F41F5FF0CF2091380420FF94C0912F93
:102BE000990F990F990F37E0390F80E023E0909308
:102BF000020180930501309303012093060124E62E
:102C000030E047E050E060E071E088E70E94AF24E8
:102C1000892B09F083CF20E2129FA001112480911B
:102C2000380480FF7CC0E8EFF1E080E2DF011D9214
:102C30008A95E9F7A1E5B1E00DE411E085E5C82E3C
:102C400081E0D82E97E0592E772473948D91E80176
:102C500029918E01240F352F311D205D3D4FE82F26
:102C6000F0E0E850FE4F80E090E0652C681A872C79
:102C7000082E01C0880C0A94EAF77901A12CE7011B
:102C8000B9907E01B820662D6A19677070E0DB2D5F
:102C9000062E01C0DD0F0A94EAF79D2E719561950D
:102CA00071096770772701C0B6946A95EAF79B2887
:102CB0006081962A9082A39468E0A612E0CF0196E4
:102CC00031968830910589F6CA16DB0609F0BECF29
:102CD00004E610E020E230E048EF51E060E488E7ED
:102CE0000E944925892B09F019CFE101C095D095A3
:102CF00080912C0290912D028C239D2390932D0284
:102D000080932C020BCF9695879596958795282FC3
:102D1000912F9295990F90763FE1390F68CF405DE2
:102D20005D4F04E610E020E230E0D8CFFF920F9331
:102D30001F93CF93DF93C62FD42F122F8115A9F0A5
:102D40006093F2040E9413109093DE018093DD01E2
:102D5000C77081E001C0880FCA95EAF70E940B0D89
:102D6000CDB7DEB7E5E00C9493278091F2046813A9
:102D700032C08091DD019091DE010E94FB14883CFD
:102D8000910548F500E20D0FCD17A9F0C770FF249B
:102D9000F3948F2D01C0880FCA95EAF70E94150D94
:102DA000083048F48D2F877001C0FF0C8A95EAF730
:102DB0008F2D0E940B0D6AE070E0812F0E94BD11E3
:102DC000083070F6D77081E001C0880FDA95EAF715
:102DD0000E94150DC5CFC77081E001C0880FCA954C
:102DE000EAF7F6CFA0E0B0E0E8EFF6E10C94742744
:102DF0007C01FC018481811531F161E0C7010E94F1
:102E00004B08EC01F7018581FE01E851FC47E730F2
:102E1000F105A8F5E95AF74D0C94C12726E241EED9
:102E200061EE0E9496168091FB048770811559F01F
:102E3000F7018581811539F08091FD0482FF03C07F
:102E400082E00E94BF05CDB7DEB7E8E00C94902782
:102E500027E245EE65EEE5CF26E241EE60EEE1CFFA
:102E600027E245EE64EEDDCF26E241EE62EED9CFF9
:102E700027E245EE66EED5CF28E241E0EBCF8115A3
:102E800009F4A2C31092F2049E0130572332310597
:102E900008F0A8C384E090E00E94EE279093FD0420
:102EA0008093FC04FE01E150F047E232F10520F48A
:102EB000E25AF74D0C94C1278091FC048160809305
:102EC000FC046091FC047091FD0484E090E00E9499
:102ED00022280E940312A7CF8091FD04886080936E
:102EE000FD04EFCF8091FC048260E9CF8091FC0467
:102EF0008460E5CF8091FC048860E1CF8091FD047F
:102F00008160EDCF8091FD048260E9CF8091FC0467
:102F10008061D5CF8091FC048062D1CF8091FC0488
:102F20008064CDCF0E9403128091FC048068C7CFDB
:102F30008091FC048C60C3CF8091FD048360CFCF6F
:102F40008091FC048E7FBBCF8091FD04877FC7CF2B
:102F50008091FC048D7FB3CF8091FC048B7FAFCF39
:102F60008091FC04877FABCF8091FD048E7FB7CF2B
:102F70008091FD048D7FB3CF8091FC048F7E9FCF25
:102F80008091FC048F7D9BCF8091FC048F7B97CF39
:102F90000E9403128091FC048F7791CF8091FC04F2
:102FA000837F8DCF8091FD048C7F99CF8091FC042D
:102FB000992782FF939590FB82F990FB83F97FCF4D
:102FC0008091FD04982F909590FB80F990FB81F9FA
:102FD00086CF9091FC04892F8F7B96FF80646FCF02
:102FE0000E9403129091FC04892F97FB87F9805867
:102FF00066CF61E08EE090E00E94042862CF60E03E
:10300000F9CF9091FC04892F8F7E94FF806157CF78
:103010009091FC04892F8E7F90FF816050CF90911A
:10302000FD04892F877F93FF886059CF89E2ECC226
:1030300089E2D5C2C737FCE7DF0709F469C0C837A2
:103040002CE7D20709F473C08115A9F0CA353CE713
:10305000D30709F498C008F070C0C1309CE7D907C5
:1030600009F48FC0C330ECE7DE0709F484C0C11552
:10307000DC4709F473C0F701858100811181811556
:1030800009F485C0C8010E941708C82F682FC8011D
:103090000E942005B8018C2F0E9406060E9414078A
:1030A000D82FC92FF701D580C680C2948FE0C822DF
:1030B0008091FB0487708115F9F00D2DD114E9F092
:1030C000892F807F803461F080E28D0F8830A0F0FE
:1030D000892F807E803221F4D23070F0C11461F0EB
:1030E0008091FD0482FF08C082E00E94BF058091AC
:1030F000FB04877001E0811100E0EC2FE295EF7096
:10310000C03C08F0AAC0F0E0E058F74D0C94C1278D
:10311000811549F082E00E94FE0444E063E082E011
:103120000E94880580CE82E00E940E05F6CF8115B0
:1031300011F083E0F0CF83E0F7CFCB352CE7D20757
:1031400021F18091FD04002482FF0394802DCC3571
:10315000DC4709F090CF0E94A20C8DCF0E94031291
:103160008FEF94E3ECE081509040E040E1F700C045
:1031700000000E947C0A6FEF7FEF80E090E00E94E9
:1031800022280E94341281E0E6CF80E0E4CFC8011B
:103190000E945505C82F7ECF1C2F1F70C03110F024
:1031A0001295107FD114B9F0111569F080E28D0FDE
:1031B000883010F0D11109C08091F404812B8093E4
:1031C000F4040E94B90C8D2F40C08091FE04812B25
:1031D0008093FE04F6CF8D2F0E948A111115E9F11C
:1031E00080E28D0F883010F0D11104C0812F0E9431
:1031F000FE0506C010958091FE0481238093FE0495
:103200000E94B90C2AC01C2F1F70C07FC03211F061
:103210001295107FD11549F0D13009F46BC0D1144B
:1032200009F477C0C114C9F1CECF8091FD0482FDAD
:1032300030C0D11469F0111539F08091F404812B5C
:103240008093F4040E94B90C80E00E94191105C01B
:1032500080E00E948A111111C9CF0115A9F0809157
:10326000FB0480FD11C0F701158286958695869531
:103270000E94FE04C7010E94F2168091FB0486950D
:10328000869586950E940E0560E0C7010E944B0856
:10329000DACDD11499F0C11004C0812F0E940B0D1A
:1032A000DCCFF1E0CF12D9CF8091F504912F982394
:1032B000191799F2812B8093F504CFCFC110CDCF90
:1032C000812F0E94150D9091F504812F892381157E
:1032D00029F0812F809589238093F5048091F6044D
:1032E000912F9823911509F4B8CF109518231093B6
:1032F000F604B3CFD11429F026E0C21608F0ADCF02
:10330000CCCF35E0C31608F0A8CF812F0E94150D51
:10331000A4CFC114D1F3D93369F48FEF97EEE3E072
:1033200081509040E040E1F700C000008D2F0E94E6
:103330008A1193CF8FE39CE90197F1F7F5CF8C2F9A
:10334000869586958370811569F0813009F085CF67
:103350008D2F9C2F9370D11002C080E090E00E94CE
:10336000C8097BCF8D2F9C2F9370D11002C080E0B5
:1033700090E00E94A20971CF6D2D8D2F0E94471001
:103380006CCF8C2F8370811142C0D1102FC04D2F74
:10339000429546954770440F440F2D2F2F7030E013
:1033A000042E02C0220F331F0A94E2F780E090E05F
:1033B000D4FF09C08FE090E002C0880F991F4A95A2
:1033C000E2F780959095C695C695C370C230B1F06E
:1033D000C33089F04091F7045091F804C13049F0AE
:1033E000822B932B842395230E94F4040E9491093D
:1033F00034CF242B352B822B932BF6CF822B932B80
:103400002091F7043091F80482279327EDCFD1144F
:1034100091F1C0FFEBCF4D2F429546954770440F79
:10342000440F2D2F2F7030E0042E02C0220F331FC7
:103430000A94E2F780E090E0D4FF09C08FE090E0CA
:1034400002C0880F991F4A95E2F780959095C6951E
:10345000C695C370C230B9F0C33091F04091F90401
:103460005091FA04C13051F0822B932B8423952381
:103470000E94F904BBCF823070F6B8CF242B352BD5
:10348000822B932BF5CF822B932B2091F904309133
:10349000FA0482279327ECCFCF70D11439F08C2F08
:1034A0000E94FE048D2F0E940B0DA0CF8D2F0E9435
:1034B000150D8C2F0E940E0599CFD23FB1F170F4FB
:1034C000D03FC9F0D13F91F0D11409F464C0C114C8
:1034D00009F45EC08D2F0E94191188CFD33F61F18E
:1034E000D43F91F78091FD0482FD34C08C2F8F7101
:1034F000D11401F31EC0D114A9F095E0C91608F04B
:1035000075CFCF7181E090E0FC0102C0EE0FFF1F8C
:10351000CA95E2F7EF018091F9049091FA048E27A1
:103520009D27A6CFF6E0CF16EACF8C2F8F71D11052
:10353000C1CF0E94FE045ACF80E090E0D11409F47C
:1035400097CFCF7181E090E002C0880F991FCA9594
:10355000E2F78ECFD11489F0CF718C2F0E94FE0438
:103560008091FD0482FF07C08C2F880F880F880F81
:1035700083608093FB048C2FDCCF81E00E94BF0529
:1035800022E0C21608F432CF82E00E94BF052ECF9F
:103590008C2F8F71CECFC114A1F0D93369F43FEFD6
:1035A00087EE93E0315080409040E1F700C000008A
:1035B0008D2F0E948A111ACFEFE3FCE93197F1F7C2
:1035C000F5CF8C2F8F7176CFC631FCE7DF0709F07E
:1035D00031CD8091F304811509F42ACD85E30E9451
:1035E000220A14C0C6312CE7D20709F023CD8091FE
:1035F000F4048A7A91E0811101C090E09093F30481
:10360000811509F413CD85E30E94EE090E94B90CDF
:103610000ACC80913F05803178F480913E05811578
:1036200059F0E09100052091FF0430913A05409156
:10363000390557E02E1301C008956E2F70E05E9F8C
:10364000F0011124DF01AF5FBA4F14968C911497EB
:10365000811561F111968C911197831327C08C917C
:10366000841324C015968C91159781111FC0129652
:103670008D919C91A0913B05B0913C058A1B9B0BC1
:10368000883C910598F480913F058F70806180930C
:103690003F05E95FFA4F80818F708061808389E305
:1036A00095E00E94F2160E94B5050895FB0131963F
:1036B000E770C0CFADE0B0E0E0E6FBE10C946F272F
:1036C0008C0186E0F801DE01189601900D928A9532
:1036D000E1F7F801F580C48089E3882E85E0982E13
:1036E00070903D05711020C0C114D9F0F11409F497
:1036F0001CC1C8010E947A08811509F416C187E02F
:10370000F801D40101900D928A95E1F7F1E0CF1212
:1037100006C08091390590913A050E946B080E947D
:10372000091BFF24F39454C0E080A280B380D090A2
:103730003E0580913B0590913C059501281B390B76
:10374000D11409F4BAC0283C310508F090C0C11466
:1037500041F390913A05C18080913F05803108F096
:1037600058C0C91214C0909139059E1110C0F110B3
:103770004AC08F70806180933F0589E395E00E9485
:10378000F21680913F05F8018683F12C21C0F110DB
:103790003AC040E06C2D8E2D0E94E30B40E06C2D72
:1037A0008E2D0E94E30BF82E8111EFCF888599852D
:1037B0000E946B08292F22952F70903470F49F700F
:1037C0002230A0F09115B1F0F8019681903190F47B
:1037D0008F2D2D96EDE00C948B272A5F2F702230D1
:1037E00068F0C8010E94F216FD2CF2CF911511F07D
:1037F000811571F3805E883058F3F3CF803F40F33A
:10380000815F8330F9CF80913F05816080933F05D0
:10381000BCCFC91207C0909139059E1103C0F114A5
:1038200009F46CC0C8010E947A08811509F47DC0B2
:10383000F11409F47AC080913F05803278F020912C
:10384000390530913A053A832983BC82AB827D8267
:103850001E828F83CE0101960E94F21687E0F80146
:10386000A9E3B5E001900D928A95E1F758CF8091D8
:103870003F05803150F489E395E00E94F21687E01D
:10388000F40111928A95E9F780CFC11409F449CF68
:1038900020913A0591812913C5CF909139059E1148
:1038A000C1CFF110BFCF8683C8010E94F21687E016
:1038B000F40111928A95E9F734CF283C3105F8F6E6
:1038C000C11409F42ECFF11481F190913A05818150
:1038D000981321C0809139058E111DC080913F053C
:1038E00080FD10C0803170F08683807F803F39F08A
:1038F0008681982F907F905F8F70892B8683C80177
:103900000E94F21687E0F801A9E3B5E001900D925C
:103910008A95E1F706CFC8010E947A0881119ECFEF
:1039200080913F05816080933F05C8010E94F21697
:10393000F8CEABE1B0E0EFE9FCE10C9478274E8BD8
:103940005F8B688F798F8A8F192F9B8F91111092BF
:10395000FE041D8A86E0FE017696DE011F96019028
:103960000D928A95E1F70A8D011539F00B8B1C8BAE
:1039700061E0CE010F960E944B080B8B1C8B87E0F9
:10398000FE013F96DE01189601900D928A95E1F7AF
:10399000CE0108960E945A1B811128C02091FF0475
:1039A0003091000587E0FE013896DE011196019006
:1039B0000D928A95E1F78C858115C1F0822F90E0F8
:1039C00001968770992738171906D9F097E0929FCA
:1039D000D0011124AF5FBA4FFE01319601900D92D4
:1039E0009A95E1F78093FF040E94B50517E0809156
:1039F00000059091FF04891312C06B96E4E00C94CB
:103A000094270E9403121092FF041092000587E091
:103A1000E9E3F5E0DF011D928A95E9F7E7CF189F0A
:103A2000C00111248F5F9A4F0E945A1B811529F300
:103A30008091000590E0019687709927809300059A
:103A4000D6CFA6E0B0E0E7E2FDE10C9478270E9433
:103A500013108C0180919D0490919E048017910712
:103A600079F019821A820E941310BC0149815A818F
:103A700080E090E00E94991C10939E0400939D04A6
:103A80002696E4E00C949427AFE0B0E0EAE4FDE190
:103A90000C946B27FE0131968AE0DF011D928A9516
:103AA000E9F785E5E82E81E0F82E8F019AE5692E89
:103AB00091E0792E2F01AA24A394B12C30E6832E15
:103AC00031E0932EF70181917F018F3F09F43EC0D1
:103AD000F894E82FE295EF70F0E021A18F70A50136
:103AE00002C0440F551F8A95E2F7CA01922F982B06
:103AF00091A392A18095892382A3789400C0EAE5DE
:103B0000F1E031E0312C21912F3F79F0A22FA295E5
:103B1000AF70A05EB0E08C9190E02F7002C09595E0
:103B200087952A95E2F780FF87C080E0382A330F17
:103B30008E169F0641F7F70182918F3F11F00E9488
:103B4000A80850EA5A95F1F7D8013C920F5F1F4F31
:103B50006E147F0409F0B6CF4AE050E0B20180E273
:103B600092E00E94D0276C01892B41F08AE0F2019B
:103B7000A0E2B2E001900D928A95E1F700912B024C
:103B800010E0045C1B4FC114D10409F457C081E05C
:103B90008093DB010E9413109093DA018093D90186
:103BA00080919704811509F49FC07E01BBE0EB0E64
:103BB000F11C85E0F70111928A95E9F78091DC010B
:103BC0008A3008F05DC04DEA5DE0B701C8010E948F
:103BD000680C811509F476C046E25EE0B701C801C1
:103BE0000E94680C811509F46DC049ED5DE0B701D4
:103BF000C8010E94680C811509F464C049E75EE0C1
:103C0000B701C8010E94680C811509F45BC01092CD
:103C1000DC0180912A0290E045E050E0B701845C2D
:103C20009B4F0E94D02721E02093D801892BE9F5F2
:103C30002F96E1E10C948727832F78CF8091DB01C9
:103C4000811509F4ADCF8091D9019091DA010E94DC
:103C5000FB14059708F4A4CF45E050E060E272E061
:103C6000C8010E94D027892B41F085E0E0E2F2E014
:103C7000D80101900D928A95E1F71092DB0190CF67
:103C80008091D6019091D7010E94FB14843F91400E
:103C900008F099CF8091D801811551F285E0D701C4
:103CA0001D928A95E9F71092D801A0912A02B0E0FE
:103CB000A45CBB4F85E0FE013B9601900D928A9576
:103CC000E1F7B6CF8091DC018F3F39F40E941310E9
:103CD0009093D7018093D601DDCF8F5F8093DC0175
:103CE0008A3008F496CFF2CFE0902A02F12CF70147
:103CF000E45CFB4F7F0185E0F801A0E8B4E00190AF
:103D00000D928A95E1F765E070E080E894E00E940A
:103D1000260980937F0485E0E5E8F4E0D70101906F
:103D20000D928A95E1F788E0E1E5F4E0ABE8B4E0D4
:103D300001900D928A95E1F768E070E08BE894E0DD
:103D40000E94260980938A04C0909304D090940422
:103D5000E0909504F09096048091D2019091D30167
:103D6000A091D401B091D501C816D906EA06FB0688
:103D700009F45ECFC092D201D092D301E092D40177
:103D8000F092D5010E944E0AC61AD70AE80AF90A2B
:103D9000C0929904D0929A04E0929B04F0929C0401
:103DA00047CFCDB7DEB72C970FB6F894DEBF0FBE66
:103DB000CDBF85B7806885BF85B7806885BF84B76C
:103DC000877F84BF0FB6F894A895809160008861C2
:103DD00080936000109260000FBE80E890E00FB604
:103DE000F89480936100909361000FBE86EA98E09A
:103DF0009093A9018093A8010E94390B0E94880B1F
:103E00008091E20084608093E200789480913B048A
:103E10008115A1F08091E900D090EC008F70D794CB
:103E2000DD24D794D82A1092E9008091E80083FD20
:103E30000E944A128D2D8F708093E90082E084BD2C
:103E400093E095BD9AEF97BD80936E001092990410
:103E500010929A0410929B0410929C048091D800B6
:103E600080618093D8002AE12A95F1F700C0809103
:103E7000D900382F3170D32E80FD04C00E94390B39
:103E800010923B04D0929704D0929804D0920901EA
:103E9000D1100E94F425E1E5F4E088E0DF011D92F5
:103EA0008A95E9F78091090191E0892780935B0465
:103EB0008091090190935E0480910901809109012C
:103EC000811106C084EF8093080185EF809307017C
:103ED00060E080E00E94E60861E080E00E94E60881
:103EE000EFE8F1E03197F1F700C00000D12C8091AC
:103EF0005E04D81608F4D3C08091090180910901AD
:103F000090E0811101C095E090932B0285E0891B20
:103F100080932A0255E5C52E51E0D52E6AE5A62EDE
:103F200061E0B62ED6018D916D018F3F11F00E9498
:103F3000A808AC14BD04B1F74AE5C42E41E0D42E64
:103F4000F60181916F018F3F11F00E94A808F0E601
:103F5000CF16F1E0DF06A1F78AE0ECE3F4E0DF0141
:103F6000282F1D922A95E9F7E0E2F2E0DF011D9289
:103F70008A95E9F780E090E00E94EE27863E9E4F0A
:103F800009F466C066EE7EEF80E090E00E94222891
:103F900060E082E090E00E94042881E090E090934D
:103FA000F8048093F70461E083E090E00E94042825
:103FB00060E074E184E090E00E94222860E086E006
:103FC00090E00E94042860E087E090E00E940428CE
:103FD00040E050E0BA0188E090E00E94162860E0DE
:103FE00084E290E00E94042860E087E190E00E9473
:103FF000042860E08CE090E00E94042860E08DE0FE
:1040000090E00E94042819821A821B821C821D8261
:104010001E821F82188648E050E068E170E0CE0101
:1040200001960E94F42740E050E0BA0180E290E05F
:104030000E94162840E050E0BA018FE090E00E9414
:10404000162840E050E0BA0183E190E00E94162873
:1040500082E090E00E94E6278093460484E090E0AE
:104060000E94EE279093FD048093FC040E94441D5F
:10407000EFEFF6E721E0E150F0402040E1F700C02B
:1040800000000E94441D80913C0480FF1AC06FEF25
:104090007FEF80E090E00E9422280E947C0A60E08E
:1040A0008D2D0E940909C82E61E08D2D0E940909FD
:1040B000ED2DF0E0E45AFB4F880F8C298083D394D8
:1040C00016CF83E090E00E94E62790E00E94F4047F
:1040D00080919704811509F4C6C093E080E2909323
:1040E0003804809337040E9479246BE070E088EFF5
:1040F00097E00E94D00E811509F43FC080913804EA
:1041000065E070E081FDB2C083EF97E00E94D00EC1
:10411000811599F16DE070E081EE97E00E94D00E7C
:10412000811559F10E944E0ADC01CB01805A95415C
:10413000AF4FBF4F8093330490933404A093350462
:10414000B0933604E0E3F2E080E092E0DF019C010E
:104150001D9221503040E1F7F0932F02E0932E02A0
:104160008FEF9FEF90932D0280932C0281E080933C
:1041700032048093310410923004809197048111AD
:1041800002C00E94F7258AE091E09093C0048093DA
:10419000BF0421E5622E24E0722ECE01019638E1A3
:1041A000832E912C89879A8780913B04853049F42E
:1041B00080913B04853009F45CC00E9403120E9488
:1041C00091090E94441D87E4C82E84E0D82E9CE308
:1041D000A92E94E0B92ED501F60191918D916E161C
:1041E0007F0609F498C09817C1F3409197044C8753
:1041F000512CD5014D905D01F60181916F0184151F
:1042000049F184258B87312C222423948B858221AC
:104210008115C9F0FC85F115B1F039825A820E94EE
:1042200013109C838B8321E02D8391E0842D8221C8
:10423000811101C090E09E8349815A816B817C810C
:104240008D810E94991C3394220C36E03312DECF0C
:10425000F601429253944AE05412CBCF0E945A0A7C
:10426000442443945DC090E080E839CF8EEE97E01F
:104270004DCF80913B04843021F10E94DD0E1092DD
:10428000390430E40FB6F894A895809260000FBE10
:104290003093600083B7817F846083BF83B7816080
:1042A00083BF7894889583B78E7F83BF0FB6F894C9
:1042B000A8958091600088618093600010926000F2
:1042C0000FBE80913A04811509F472CF0E94441DFB
:1042D000ECE3F4E086E494E02191211104C08E1710
:1042E0009F07D1F765CF80E189BD82E189BD09B41F
:1042F00000FEFDCF8091D8008F7D8093D800809103
:10430000E00082608093E0008091E00081FDFCCFBE
:104310000E9403124DCF981368CF0E94211D412C9B
:10432000B0909704B11419F00E94D411B82E809166
:104330006804811551F010926804809153048093B1
:1043400054048091510480935204A12C3BC061E03D
:104350008A2D0E940909D82E60E08A2D0E94090941
:10436000DD0CD82A2A2D30E0D901A45ABB4FEC919C
:104370008E2F8370D81629F1EE0FEE0FED29EC93F6
:1043800080915B048A0DEF70F0E0E05AFE4FD90196
:10439000A75ABB4F6D0150809C91590EB2E060E06E
:1043A0005B1624F4EFEF5E161CF461E00E94C50872
:1043B000852D550C990B62E070E00E94AD27D60167
:1043C0008C93A39480915E04A81608F280919704C0
:1043D000811519F00E94D411B82AB11439F00E9445
:1043E0005A0A0E940A150E94EF0E04C00E940A1584
:1043F0004110F9CF86E0ECEEF4E0A985BA85019092
:104400000D928A95E1F74090ED04D090EE04B090C3
:10441000EF04A090F004C090F1041092EE0410920A
:10442000EF041092F0041092F1048D2D8B29811568
:1044300009F43FC080916104909162040E94FB14D2
:104440008C018091EA04811509F4B2C0053111058F
:1044500080F18F3F19F08F5F8093EA04D11459F0F7
:104460000E944C0991E01D140CF09FEF899F802D54
:1044700011248093EE04B11459F00E944C0991E08C
:104480001B140CF09FEF899F802D11248093EF0463
:104490008091EE04811569F05090EF04511449F0B9
:1044A0000E943E098093EE04852D0E943E09809370
:1044B000EF048C2D8A29811509F440C080915F0496
:1044C000909160040E94FB147C018091E9048115A5
:1044D00009F468C0B1E5EB16F10480F18F3F19F0E3
:1044E0008F5F8093E904A11459F00E946C0991E058
:1044F0001A140CF09FEF899F802D11248093F004F3
:10450000C11459F00E946C0991E01C140CF09FEF4B
:10451000899F802D11248093F1048091F0048115EE
:1045200069F0A090F104A11449F00E943E09809323
:10453000F0048A2D0E943E098093F1048091ED04DD
:10454000481219C08091EE04811511F0D81213C0E1
:104550002091EF04211511F02B110DC09091F10461
:10456000911511F0C91207C03091F004311103C048
:10457000822B892B81110E941F1086E0E985FA8524
:10458000ACEEB4E001900D928A95E1F70E9491099A
:1045900090916304891709F407CE809363040E9405
:1045A0004E0A02CEEBE0EE16F10408F099CFC6CF2A
:1045B0000B30110508F04FCF7CCF78941F921FB6B7
:1045C0001F9211248F939F93AF93BF9380917B048D
:1045D00090917C04A0917D04B0917E040196A11D70
:1045E000B11D80937B0490937C04A0937D04B093D1
:1045F0007E04BF91AF919F918F911F901FBE1F901E
:1046000018951F920F920FB60F9211242F933F937C
:104610004F935F936F937F938F939F93AF93BF93CA
:10462000EF93FF938091E10082FF09C08091E20047
:1046300082FF05C08091E1008B7F8093E100809133
:10464000DA0080FF24C08091D80080FF20C08091D4
:10465000DA008E7F8093DA008091D90080FF9BC0C2
:1046600080E189BD82E189BD09B400FEFDCF81E012
:1046700080933B048091E201811109C00E94390BB3
:104680000E94880B8091E20084608093E200809118
:10469000E10080FF17C08091E20080FF13C080918D
:1046A000E2008E7F8093E2008091E200806180933F
:1046B000E2008091D80080628093D80019BC85E028
:1046C00080933B048091E10084FF29C08091E20047
:1046D00084FF25C080E189BD82E189BD09B400FE67
:1046E000FDCF8091D8008F7D8093D8008091E1002C
:1046F0008F7E8093E1008091E2008F7E8093E200C4
:104700008091E20081608093E2008091E101811557
:1047100009F447C084E080933B0480913B0480917E
:10472000E10083FF27C08091E20083FF23C08091D6
:10473000E100877F8093E10082E080933B04109248
:10474000E1018091E1008E7F8093E1008091E200A1
:104750008E7F8093E2008091E20080618093E2008E
:1047600042E060E080E00E94580B8091F000886099
:104770008093F000FF91EF91BF91AF919F918F9146
:104780007F916F915F914F913F912F910F900FBE4D
:104790000F901F90189519BC10923B041092E201E3
:1047A00076CF8091E30087FF02C083E0B4CF81E041
:1047B000B2CF1F920F920FB60F921124EF92FF9279
:1047C0000F931F932F933F934F935F936F937F9319
:1047D0008F939F93AF93BF93CF93EF93FF9309EE84
:1047E00010E0F8018081C091EC008F70C795CC2754
:1047F000C795C82B108280EFE82EF12CF70180813D
:10480000877F808378940E944A12F8011082F70112
:10481000808188608083CF70F801C083FF91EF9121
:10482000CF91BF91AF919F918F917F916F915F9148
:104830004F913F912F911F910F91FF90EF900F900B
:104840000FBE0F901F901895FF920F931F93CF9359
:10485000DF93182FEB011092BC0084EA8093BC0018
:104860000E941310082FF92E8091BC0087FF28C0EA
:104870008091B900887F883029F08091B900887FC5
:104880008031A1F51093BB0084E88093BC000E94A6
:104890001310182F092F8091BC0087FF1FC0209193
:1048A000B900287F80E090E0283199F081E090E025
:1048B000203411F480E090E091958195910909C030
:1048C000802F9F2D0E94FB14C817D90768F68EEF22
:1048D0009FEFCDB7DEB7E5E00C949327812F902FA3
:1048E0000E94FB14C817D907B0F6F1CF8FEF9FEFE6
:1048F000F0CF1092B9008CE08093B80008950F9328
:104900001F93CF93DF93EB018093BB0084E88093E8
:10491000BC000E941310182F092F8091BC0087FF44
:1049200011C02091B900287F81E090E0283211F475
:1049300080E090E0919581959109DF91CF911F9151
:104940000F910895CF3FDC0741F3812F902F0E94F4
:10495000FB14C817D90708F78EEF9FEFEECFA0E042
:10496000B0E0E5EBF4E20C946F27782EB62EA72E7C
:104970006A01E9010E9413104C01C431D10528F1EC
:10498000CF3FDC0731F1CE0164E170E00E94562791
:10499000F62EE72E6F2D7E2D872D0E9424248C016C
:1049A000892BD1F4EB2CFA2CCE0CDF1CEC14FD047B
:1049B00019F001151105D1F084E98093BC00C801FC
:1049C000CDB7DEB7EDE00C948B27FF24F394E12CF8
:1049D000E1CF85E0F82EFBCFCF3FDC07D9F2C40151
:1049E0000E94FB14C817D907A8F6DCCFBE01F70157
:1049F00081917F010E947F248C01D8CFA0E0B0E09C
:104A0000E4E0F5E20C946F27782EB62EA72E6A010B
:104A100089010E9413104C010431110518F10F3F58
:104A2000100719F1C80164E170E00E945627EB01FC
:104A3000BE01872D0E9424247C01892BC1F4CB2D3B
:104A4000DA2DCC0EDD1ECC15DD0519F0E114F104D4
:104A5000C1F084E98093BC00C701CDB7DEB7EDE0BB
:104A60000C948B27C1E0D0E0E3CFC5E0FCCF0F3F33
:104A70001007F1F2C4010E94FB1408171907C0F6D1
:104A8000DECFFE018491B8010E947F247C01219633
:104A9000DACFA0E0B0E0EFE4F5E20C946E27682EE8
:104AA000962E5A01690178010E941310782E892EE2
:104AB0000431110530F10F3F100731F1C80164E1F5
:104AC00070E00E945627162F072F612F702F862D1A
:104AD0000E942424EC01892BC9F0FFEFEF16FF069A
:104AE000A1F3872D982D0E94FB14E816F90668F7AC
:104AF00084E98093BC00CE01CDB7DEB7EEE00C9424
:104B00008A2711E000E0E1CF15E0FCCFB701892D45
:104B10000E947F24EC018501CA0CDB1C0C151D05CD
:104B200039F3209729F7B701F80181918F010E948D
:104B30007F24EC01F3CF8EE14A9B02C08A95E1F716
:104B40004A9BFECF08955A9880E28A95F1F75A9AC7
:104B50000895FC013BE03A95F1F798E020E080E011
:104B600031E040E14A95F1F7880F4A9B02C081602D
:104B7000232742E04A95F1F7000040E14A95F1F71A
:104B80009A9579F790E19A95F1F799B132E03A95D3
:104B9000F1F7000040E14A95F1F792FB992790F96F
:104BA00092272081920F90830895A1E0B0E0EBED71
:104BB000F5E20C94762719828C017C01E60EF11C3B
:104BC0000E949B25CE0101960E94A925F8018193A0
:104BD0008F01EE15FF05A1F781E09981911180E029
:104BE0002196E6E00C949227529A5A9A0895529888
:104BF0005A9AEA9AE9E6F0E080818F7C80830895F2
:104C00006150770B91E001C0990F6A95EAF7692F1F
:104C100090E021E0611108C0911599F05A9A80E264
:104C20008A95F1F75A980895362F3823311539F0BF
:104C30005A9A922730E23A95F1F76695EBCF5A9857
:104C4000F9CF5A98ECCFFF920F931F93CF93DF9336
:104C5000EC018C01060F111DF9900E94A32568E05C
:104C60008F2D0E940026C017D107B1F7CDB7DEB750
:104C7000E5E00C9493271F920F920FB60F92112428
:104C80000F931F932F933F934F935F936F937F9354
:104C90008F939F93AF93BF93EF93FF93CF93DF9344
:104CA0000F92CDB7DEB719820E949B25CE010196E7
:104CB0000E94A925082F069506950695982F92958E
:104CC0009570202F2570920F292F23709695969519
:104CD000920F982797708981892B811509F05CC004
:104CE000083008F059C080E18A95F1F75A9A529A33
:104CF00082E08A95F1F700C05A9888E0089F800109
:104D00001124D801AC5EBE4F1696ED91FC91179719
:104D10003097A9F0609170017091710114962D91F6
:104D20003C911597260F371F11968D919C911297E4
:104D3000680F791F13964C9113978C910995F80180
:104D4000EC5EFE4F6381611551F02091700130914E
:104D5000710184819581820F931F0E9423260E94F6
:104D6000A32580E18A95F1F75A9852985A9A80E1E2
:104D70008A95F1F7F801EC5EFE4F6081611551F004
:104D8000209170013091710181819281820F931F76
:104D90000E94D5250E949B250F90DF91CF91FF9116
:104DA000EF91BF91AF919F918F917F916F915F91A3
:104DB0004F913F912F911F910F910F900FBE0F9028
:104DC0001F9018950F931F93CF93DF938C01089733
:104DD0000CF064C0F894529A5A9885E08A95F1F7DD
:104DE0000000C02FC695C570802F8570C80F8C2F0E
:104DF0008370C695C69593E0000F111F9A95E1F751
:104E0000C80FC8018C2BEC010E94A32500C068E0EC
:104E10008C2F0E94002690E19A95F1F752985A9AA9
:104E20004A9B35C087E090E04A9933C0F801EC5EB8
:104E3000FE4F6381611561F0209170013091710125
:104E400084819581820F931F0E94D525811519F1C8
:104E50000E949B2580E28A95F1F75A98529A90E138
:104E60009A95F1F7F801EC5EFE4F6081611551F003
:104E7000209170013091710181819281820F931F85
:104E80000E9423260E94A325789481E008C000C0D8
:104E9000C7CF019749F4529A5A9A789480E0DF91EB
:104EA000CF911F910F91089500C0BECFAA1BBB1BCD
:104EB00051E107C0AA1FBB1FA617B70710F0A61B1A
:104EC000B70B881F991F5A95A9F780959095BC013B
:104ED000CD0108952F923F924F925F926F927F92F1
:104EE0008F929F92AF92BF92CF92DF92EF92FF92FA
:104EF0000F931F93CF93DF93CDB7DEB7CA1BDB0BA6
:104F00000FB6F894DEBF0FBECDBF09942A8839884A
:104F100048885F846E847D848C849B84AA84B98451
:104F2000C884DF80EE80FD800C811B81AA81B9815D
:104F3000CE0FD11D0FB6F894DEBF0FBECDBFED0171
:104F40000895992778E0880F991F961708F0961B07
:104F5000881F7A95C9F78095089597FB072E16F458
:104F6000009407D077FD09D00E94562707FC05D092
:104F70003EF4909581959F4F0895709561957F4F70
:104F80000895EE0FFF1F0590F491E02D0994FB01A9
:104F9000DC0102C005900D9241505040D8F70895B1
:104FA000FB01DC0104C08D910190801921F4415076
:104FB0005040C8F7881B990B0895FB01DC0102C023
:104FC00001900D9241505040D8F70895F999FECFC5
:104FD00092BD81BDF89A992780B50895A8E1B0E007
:104FE00042E050E00C942A28DC01A40FB51F415088
:104FF000504048F0CB01840F951F2E910E94052848
:1050000041505040D0F70895262FF999FECF92BD18
:1050100081BDF89A019700B4021639F01FBA20BD7D
:105020000FB6F894FA9AF99A0FBE08950396272FAF
:105030000E9405280E940428252F0E940528242F5D
:105040000C9405280196272F0E9405280C9404280B
:10505000DC01CB01FC01F999FECF06C0F2BDE1BD38
:10506000F89A319600B40D9241505040B8F7089527
:10507000F894FFCF66106E10711077108C108C10A2
:105080008C108C108C108C108C108C107A107F105F
:10509000831089109A10A010A41027134D135313D6
:1050A0004D135313A613C8135313C614D3142C173C
:1050B00030170E172817341738173C17A017081881
:1050C000A81772177617AC177A17B017BC17861780
:1050D00001188A17C0178E17C417E9179217C81737
:1050E000F0179817CE17D6177E17B4178217B81770
:1050F0009C17D217E017F917FF176C17A4170F1892
:10510000CC18CC18031903199F19BC192D192D1986
:08511000C1194C1A5D1A5D1A69
:105118000021007F220003F4F5018D0A3C0C530C9A
:105128005A0C610C0000000100000000000000059E
:10513800010000000506000000000000000000015A
:105148000B000000000000080C0000000000000038
:105158000000C1080414000000000000010008104D
:1051680018181008006697C63435F6F7313332360A
:1051780000FF0100010000FFFF0000010001FF0027
:105188007F04E200E900EA00B500B600B700CD00F0
:105198008301CC008A019201940121022302240296
:1051A8002502260227022A02B300B4006F0070000D
:0851B8009F01CB019F02A00240
:00000001FF
